{
  "_format": "hh-sol-artifact-1",
  "contractName": "erc20",
  "sourceName": "contracts/test/erc20.sol",
  "abi": [
    {
      "inputs": [],
      "stateMutability": "nonpayable",
      "type": "constructor"
    },
    {
      "anonymous": false,
      "inputs": [
        {
          "indexed": true,
          "internalType": "address",
          "name": "owner",
          "type": "address"
        },
        {
          "indexed": true,
          "internalType": "address",
          "name": "spender",
          "type": "address"
        },
        {
          "indexed": false,
          "internalType": "uint256",
          "name": "value",
          "type": "uint256"
        }
      ],
      "name": "Approval",
      "type": "event"
    },
    {
      "anonymous": false,
      "inputs": [
        {
          "indexed": true,
          "internalType": "bytes32",
          "name": "role",
          "type": "bytes32"
        },
        {
          "indexed": true,
          "internalType": "bytes32",
          "name": "previousAdminRole",
          "type": "bytes32"
        },
        {
          "indexed": true,
          "internalType": "bytes32",
          "name": "newAdminRole",
          "type": "bytes32"
        }
      ],
      "name": "RoleAdminChanged",
      "type": "event"
    },
    {
      "anonymous": false,
      "inputs": [
        {
          "indexed": true,
          "internalType": "bytes32",
          "name": "role",
          "type": "bytes32"
        },
        {
          "indexed": true,
          "internalType": "address",
          "name": "account",
          "type": "address"
        },
        {
          "indexed": true,
          "internalType": "address",
          "name": "sender",
          "type": "address"
        }
      ],
      "name": "RoleGranted",
      "type": "event"
    },
    {
      "anonymous": false,
      "inputs": [
        {
          "indexed": true,
          "internalType": "bytes32",
          "name": "role",
          "type": "bytes32"
        },
        {
          "indexed": true,
          "internalType": "address",
          "name": "account",
          "type": "address"
        },
        {
          "indexed": true,
          "internalType": "address",
          "name": "sender",
          "type": "address"
        }
      ],
      "name": "RoleRevoked",
      "type": "event"
    },
    {
      "anonymous": false,
      "inputs": [
        {
          "indexed": true,
          "internalType": "address",
          "name": "from",
          "type": "address"
        },
        {
          "indexed": true,
          "internalType": "address",
          "name": "to",
          "type": "address"
        },
        {
          "indexed": false,
          "internalType": "uint256",
          "name": "value",
          "type": "uint256"
        }
      ],
      "name": "Transfer",
      "type": "event"
    },
    {
      "inputs": [],
      "name": "DEFAULT_ADMIN_ROLE",
      "outputs": [
        {
          "internalType": "bytes32",
          "name": "",
          "type": "bytes32"
        }
      ],
      "stateMutability": "view",
      "type": "function"
    },
    {
      "inputs": [],
      "name": "MINTER_ROLE",
      "outputs": [
        {
          "internalType": "bytes32",
          "name": "",
          "type": "bytes32"
        }
      ],
      "stateMutability": "view",
      "type": "function"
    },
    {
      "inputs": [
        {
          "internalType": "address",
          "name": "owner",
          "type": "address"
        },
        {
          "internalType": "address",
          "name": "spender",
          "type": "address"
        }
      ],
      "name": "allowance",
      "outputs": [
        {
          "internalType": "uint256",
          "name": "",
          "type": "uint256"
        }
      ],
      "stateMutability": "view",
      "type": "function"
    },
    {
      "inputs": [
        {
          "internalType": "address",
          "name": "spender",
          "type": "address"
        },
        {
          "internalType": "uint256",
          "name": "amount",
          "type": "uint256"
        }
      ],
      "name": "approve",
      "outputs": [
        {
          "internalType": "bool",
          "name": "",
          "type": "bool"
        }
      ],
      "stateMutability": "nonpayable",
      "type": "function"
    },
    {
      "inputs": [
        {
          "internalType": "address",
          "name": "account",
          "type": "address"
        }
      ],
      "name": "balanceOf",
      "outputs": [
        {
          "internalType": "uint256",
          "name": "",
          "type": "uint256"
        }
      ],
      "stateMutability": "view",
      "type": "function"
    },
    {
      "inputs": [],
      "name": "decimals",
      "outputs": [
        {
          "internalType": "uint8",
          "name": "",
          "type": "uint8"
        }
      ],
      "stateMutability": "view",
      "type": "function"
    },
    {
      "inputs": [
        {
          "internalType": "address",
          "name": "spender",
          "type": "address"
        },
        {
          "internalType": "uint256",
          "name": "subtractedValue",
          "type": "uint256"
        }
      ],
      "name": "decreaseAllowance",
      "outputs": [
        {
          "internalType": "bool",
          "name": "",
          "type": "bool"
        }
      ],
      "stateMutability": "nonpayable",
      "type": "function"
    },
    {
      "inputs": [
        {
          "internalType": "bytes32",
          "name": "role",
          "type": "bytes32"
        }
      ],
      "name": "getRoleAdmin",
      "outputs": [
        {
          "internalType": "bytes32",
          "name": "",
          "type": "bytes32"
        }
      ],
      "stateMutability": "view",
      "type": "function"
    },
    {
      "inputs": [
        {
          "internalType": "address",
          "name": "account",
          "type": "address"
        }
      ],
      "name": "grantMinterRole",
      "outputs": [],
      "stateMutability": "nonpayable",
      "type": "function"
    },
    {
      "inputs": [
        {
          "internalType": "bytes32",
          "name": "role",
          "type": "bytes32"
        },
        {
          "internalType": "address",
          "name": "account",
          "type": "address"
        }
      ],
      "name": "grantRole",
      "outputs": [],
      "stateMutability": "nonpayable",
      "type": "function"
    },
    {
      "inputs": [
        {
          "internalType": "bytes32",
          "name": "role",
          "type": "bytes32"
        },
        {
          "internalType": "address",
          "name": "account",
          "type": "address"
        }
      ],
      "name": "hasRole",
      "outputs": [
        {
          "internalType": "bool",
          "name": "",
          "type": "bool"
        }
      ],
      "stateMutability": "view",
      "type": "function"
    },
    {
      "inputs": [
        {
          "internalType": "address",
          "name": "spender",
          "type": "address"
        },
        {
          "internalType": "uint256",
          "name": "addedValue",
          "type": "uint256"
        }
      ],
      "name": "increaseAllowance",
      "outputs": [
        {
          "internalType": "bool",
          "name": "",
          "type": "bool"
        }
      ],
      "stateMutability": "nonpayable",
      "type": "function"
    },
    {
      "inputs": [
        {
          "internalType": "address",
          "name": "to",
          "type": "address"
        },
        {
          "internalType": "uint256",
          "name": "amount",
          "type": "uint256"
        }
      ],
      "name": "mintTo",
      "outputs": [],
      "stateMutability": "nonpayable",
      "type": "function"
    },
    {
      "inputs": [],
      "name": "name",
      "outputs": [
        {
          "internalType": "string",
          "name": "",
          "type": "string"
        }
      ],
      "stateMutability": "view",
      "type": "function"
    },
    {
      "inputs": [
        {
          "internalType": "bytes32",
          "name": "role",
          "type": "bytes32"
        },
        {
          "internalType": "address",
          "name": "account",
          "type": "address"
        }
      ],
      "name": "renounceRole",
      "outputs": [],
      "stateMutability": "nonpayable",
      "type": "function"
    },
    {
      "inputs": [
        {
          "internalType": "bytes32",
          "name": "role",
          "type": "bytes32"
        },
        {
          "internalType": "address",
          "name": "account",
          "type": "address"
        }
      ],
      "name": "revokeRole",
      "outputs": [],
      "stateMutability": "nonpayable",
      "type": "function"
    },
    {
      "inputs": [
        {
          "internalType": "bytes4",
          "name": "interfaceId",
          "type": "bytes4"
        }
      ],
      "name": "supportsInterface",
      "outputs": [
        {
          "internalType": "bool",
          "name": "",
          "type": "bool"
        }
      ],
      "stateMutability": "view",
      "type": "function"
    },
    {
      "inputs": [],
      "name": "symbol",
      "outputs": [
        {
          "internalType": "string",
          "name": "",
          "type": "string"
        }
      ],
      "stateMutability": "view",
      "type": "function"
    },
    {
      "inputs": [],
      "name": "totalSupply",
      "outputs": [
        {
          "internalType": "uint256",
          "name": "",
          "type": "uint256"
        }
      ],
      "stateMutability": "view",
      "type": "function"
    },
    {
      "inputs": [
        {
          "internalType": "address",
          "name": "to",
          "type": "address"
        },
        {
          "internalType": "uint256",
          "name": "amount",
          "type": "uint256"
        }
      ],
      "name": "transfer",
      "outputs": [
        {
          "internalType": "bool",
          "name": "",
          "type": "bool"
        }
      ],
      "stateMutability": "nonpayable",
      "type": "function"
    },
    {
      "inputs": [
        {
          "internalType": "address",
          "name": "from",
          "type": "address"
        },
        {
          "internalType": "address",
          "name": "to",
          "type": "address"
        },
        {
          "internalType": "uint256",
          "name": "amount",
          "type": "uint256"
        }
      ],
      "name": "transferFrom",
      "outputs": [
        {
          "internalType": "bool",
          "name": "",
          "type": "bool"
        }
      ],
      "stateMutability": "nonpayable",
      "type": "function"
    }
  ],
  "bytecode": "0x60806040523480156200001157600080fd5b506040518060400160405280600881526020017f544f5953544553540000000000000000000000000000000000000000000000008152506040518060400160405280600881526020017f544f59535445535400000000000000000000000000000000000000000000000081525081600390816200008f91906200049e565b508060049081620000a191906200049e565b505050620000b96000801b33620000bf60201b60201c565b62000585565b620000d18282620001b160201b60201c565b620001ad5760016005600084815260200190815260200160002060000160008373ffffffffffffffffffffffffffffffffffffffff1673ffffffffffffffffffffffffffffffffffffffff16815260200190815260200160002060006101000a81548160ff021916908315150217905550620001526200021c60201b60201c565b73ffffffffffffffffffffffffffffffffffffffff168173ffffffffffffffffffffffffffffffffffffffff16837f2f8788117e7eff1d82e926ec794901d17c78024a50270940304540a733656f0d60405160405180910390a45b5050565b60006005600084815260200190815260200160002060000160008373ffffffffffffffffffffffffffffffffffffffff1673ffffffffffffffffffffffffffffffffffffffff16815260200190815260200160002060009054906101000a900460ff16905092915050565b600033905090565b600081519050919050565b7f4e487b7100000000000000000000000000000000000000000000000000000000600052604160045260246000fd5b7f4e487b7100000000000000000000000000000000000000000000000000000000600052602260045260246000fd5b60006002820490506001821680620002a657607f821691505b602082108103620002bc57620002bb6200025e565b5b50919050565b60008190508160005260206000209050919050565b60006020601f8301049050919050565b600082821b905092915050565b600060088302620003267fffffffffffffffffffffffffffffffffffffffffffffffffffffffffffffffff82620002e7565b620003328683620002e7565b95508019841693508086168417925050509392505050565b6000819050919050565b6000819050919050565b60006200037f6200037962000373846200034a565b62000354565b6200034a565b9050919050565b6000819050919050565b6200039b836200035e565b620003b3620003aa8262000386565b848454620002f4565b825550505050565b600090565b620003ca620003bb565b620003d781848462000390565b505050565b5b81811015620003ff57620003f3600082620003c0565b600181019050620003dd565b5050565b601f8211156200044e576200041881620002c2565b6200042384620002d7565b8101602085101562000433578190505b6200044b6200044285620002d7565b830182620003dc565b50505b505050565b600082821c905092915050565b6000620004736000198460080262000453565b1980831691505092915050565b60006200048e838362000460565b9150826002028217905092915050565b620004a98262000224565b67ffffffffffffffff811115620004c557620004c46200022f565b5b620004d182546200028d565b620004de82828562000403565b600060209050601f83116001811462000516576000841562000501578287015190505b6200050d858262000480565b8655506200057d565b601f1984166200052686620002c2565b60005b82811015620005505784890151825560018201915060208501945060208101905062000529565b868310156200057057848901516200056c601f89168262000460565b8355505b6001600288020188555050505b505050505050565b61219680620005956000396000f3fe608060405234801561001057600080fd5b50600436106101375760003560e01c80633dd1eb61116100b8578063a217fddf1161007c578063a217fddf14610374578063a457c2d714610392578063a9059cbb146103c2578063d5391393146103f2578063d547741f14610410578063dd62ed3e1461042c57610137565b80633dd1eb61146102be578063449a52f8146102da57806370a08231146102f657806391d148541461032657806395d89b411461035657610137565b8063248a9ca3116100ff578063248a9ca3146102085780632f2ff15d14610238578063313ce5671461025457806336568abe14610272578063395093511461028e57610137565b806301ffc9a71461013c57806306fdde031461016c578063095ea7b31461018a57806318160ddd146101ba57806323b872dd146101d8575b600080fd5b610156600480360381019061015191906115ad565b61045c565b60405161016391906115f5565b60405180910390f35b6101746104d6565b60405161018191906116a0565b60405180910390f35b6101a4600480360381019061019f9190611756565b610568565b6040516101b191906115f5565b60405180910390f35b6101c261058b565b6040516101cf91906117a5565b60405180910390f35b6101f260048036038101906101ed91906117c0565b610595565b6040516101ff91906115f5565b60405180910390f35b610222600480360381019061021d9190611849565b6105c4565b60405161022f9190611885565b60405180910390f35b610252600480360381019061024d91906118a0565b6105e4565b005b61025c610605565b60405161026991906118fc565b60405180910390f35b61028c600480360381019061028791906118a0565b61060e565b005b6102a860048036038101906102a39190611756565b610691565b6040516102b591906115f5565b60405180910390f35b6102d860048036038101906102d39190611917565b6106c8565b005b6102f460048036038101906102ef9190611756565b610703565b005b610310600480360381019061030b9190611917565b61073c565b60405161031d91906117a5565b60405180910390f35b610340600480360381019061033b91906118a0565b610784565b60405161034d91906115f5565b60405180910390f35b61035e6107ef565b60405161036b91906116a0565b60405180910390f35b61037c610881565b6040516103899190611885565b60405180910390f35b6103ac60048036038101906103a79190611756565b610888565b6040516103b991906115f5565b60405180910390f35b6103dc60048036038101906103d79190611756565b6108ff565b6040516103e991906115f5565b60405180910390f35b6103fa610922565b6040516104079190611885565b60405180910390f35b61042a600480360381019061042591906118a0565b610946565b005b61044660048036038101906104419190611944565b610967565b60405161045391906117a5565b60405180910390f35b60007f7965db0b000000000000000000000000000000000000000000000000000000007bffffffffffffffffffffffffffffffffffffffffffffffffffffffff1916827bffffffffffffffffffffffffffffffffffffffffffffffffffffffff191614806104cf57506104ce826109ee565b5b9050919050565b6060600380546104e5906119b3565b80601f0160208091040260200160405190810160405280929190818152602001828054610511906119b3565b801561055e5780601f106105335761010080835404028352916020019161055e565b820191906000526020600020905b81548152906001019060200180831161054157829003601f168201915b5050505050905090565b600080610573610a58565b9050610580818585610a60565b600191505092915050565b6000600254905090565b6000806105a0610a58565b90506105ad858285610c29565b6105b8858585610cb5565b60019150509392505050565b600060056000838152602001908152602001600020600101549050919050565b6105ed826105c4565b6105f681610f2b565b6106008383610f3f565b505050565b60006012905090565b610616610a58565b73ffffffffffffffffffffffffffffffffffffffff168173ffffffffffffffffffffffffffffffffffffffff1614610683576040517f08c379a000000000000000000000000000000000000000000000000000000000815260040161067a90611a56565b60405180910390fd5b61068d8282611020565b5050565b60008061069c610a58565b90506106bd8185856106ae8589610967565b6106b89190611aa5565b610a60565b600191505092915050565b6000801b6106d581610f2b565b6106ff7f9f2df0fed2c77648de5860a4cc508cd0818c85b8b8a1ab4ceeef8d981c8956a683610f3f565b5050565b7f9f2df0fed2c77648de5860a4cc508cd0818c85b8b8a1ab4ceeef8d981c8956a661072d81610f2b565b6107378383611102565b505050565b60008060008373ffffffffffffffffffffffffffffffffffffffff1673ffffffffffffffffffffffffffffffffffffffff168152602001908152602001600020549050919050565b60006005600084815260200190815260200160002060000160008373ffffffffffffffffffffffffffffffffffffffff1673ffffffffffffffffffffffffffffffffffffffff16815260200190815260200160002060009054906101000a900460ff16905092915050565b6060600480546107fe906119b3565b80601f016020809104026020016040519081016040528092919081815260200182805461082a906119b3565b80156108775780601f1061084c57610100808354040283529160200191610877565b820191906000526020600020905b81548152906001019060200180831161085a57829003601f168201915b5050505050905090565b6000801b81565b600080610893610a58565b905060006108a18286610967565b9050838110156108e6576040517f08c379a00000000000000000000000000000000000000000000000000000000081526004016108dd90611b4b565b60405180910390fd5b6108f38286868403610a60565b60019250505092915050565b60008061090a610a58565b9050610917818585610cb5565b600191505092915050565b7f9f2df0fed2c77648de5860a4cc508cd0818c85b8b8a1ab4ceeef8d981c8956a681565b61094f826105c4565b61095881610f2b565b6109628383611020565b505050565b6000600160008473ffffffffffffffffffffffffffffffffffffffff1673ffffffffffffffffffffffffffffffffffffffff16815260200190815260200160002060008373ffffffffffffffffffffffffffffffffffffffff1673ffffffffffffffffffffffffffffffffffffffff16815260200190815260200160002054905092915050565b60007f01ffc9a7000000000000000000000000000000000000000000000000000000007bffffffffffffffffffffffffffffffffffffffffffffffffffffffff1916827bffffffffffffffffffffffffffffffffffffffffffffffffffffffff1916149050919050565b600033905090565b600073ffffffffffffffffffffffffffffffffffffffff168373ffffffffffffffffffffffffffffffffffffffff1603610acf576040517f08c379a0000000000000000000000000000000000000000000000000000000008152600401610ac690611bdd565b60405180910390fd5b600073ffffffffffffffffffffffffffffffffffffffff168273ffffffffffffffffffffffffffffffffffffffff1603610b3e576040517f08c379a0000000000000000000000000000000000000000000000000000000008152600401610b3590611c6f565b60405180910390fd5b80600160008573ffffffffffffffffffffffffffffffffffffffff1673ffffffffffffffffffffffffffffffffffffffff16815260200190815260200160002060008473ffffffffffffffffffffffffffffffffffffffff1673ffffffffffffffffffffffffffffffffffffffff168152602001908152602001600020819055508173ffffffffffffffffffffffffffffffffffffffff168373ffffffffffffffffffffffffffffffffffffffff167f8c5be1e5ebec7d5bd14f71427d1e84f3dd0314c0f7b2291e5b200ac8c7c3b92583604051610c1c91906117a5565b60405180910390a3505050565b6000610c358484610967565b90507fffffffffffffffffffffffffffffffffffffffffffffffffffffffffffffffff8114610caf5781811015610ca1576040517f08c379a0000000000000000000000000000000000000000000000000000000008152600401610c9890611cdb565b60405180910390fd5b610cae8484848403610a60565b5b50505050565b600073ffffffffffffffffffffffffffffffffffffffff168373ffffffffffffffffffffffffffffffffffffffff1603610d24576040517f08c379a0000000000000000000000000000000000000000000000000000000008152600401610d1b90611d6d565b60405180910390fd5b600073ffffffffffffffffffffffffffffffffffffffff168273ffffffffffffffffffffffffffffffffffffffff1603610d93576040517f08c379a0000000000000000000000000000000000000000000000000000000008152600401610d8a90611dff565b60405180910390fd5b610d9e838383611258565b60008060008573ffffffffffffffffffffffffffffffffffffffff1673ffffffffffffffffffffffffffffffffffffffff16815260200190815260200160002054905081811015610e24576040517f08c379a0000000000000000000000000000000000000000000000000000000008152600401610e1b90611e91565b60405180910390fd5b8181036000808673ffffffffffffffffffffffffffffffffffffffff1673ffffffffffffffffffffffffffffffffffffffff16815260200190815260200160002081905550816000808573ffffffffffffffffffffffffffffffffffffffff1673ffffffffffffffffffffffffffffffffffffffff168152602001908152602001600020600082825401925050819055508273ffffffffffffffffffffffffffffffffffffffff168473ffffffffffffffffffffffffffffffffffffffff167fddf252ad1be2c89b69c2b068fc378daa952ba7f163c4a11628f55a4df523b3ef84604051610f1291906117a5565b60405180910390a3610f2584848461125d565b50505050565b610f3c81610f37610a58565b611262565b50565b610f498282610784565b61101c5760016005600084815260200190815260200160002060000160008373ffffffffffffffffffffffffffffffffffffffff1673ffffffffffffffffffffffffffffffffffffffff16815260200190815260200160002060006101000a81548160ff021916908315150217905550610fc1610a58565b73ffffffffffffffffffffffffffffffffffffffff168173ffffffffffffffffffffffffffffffffffffffff16837f2f8788117e7eff1d82e926ec794901d17c78024a50270940304540a733656f0d60405160405180910390a45b5050565b61102a8282610784565b156110fe5760006005600084815260200190815260200160002060000160008373ffffffffffffffffffffffffffffffffffffffff1673ffffffffffffffffffffffffffffffffffffffff16815260200190815260200160002060006101000a81548160ff0219169083151502179055506110a3610a58565b73ffffffffffffffffffffffffffffffffffffffff168173ffffffffffffffffffffffffffffffffffffffff16837ff6391f5c32d9c69d2a47ea670b442974b53935d1edc7fd64eb21e047a839171b60405160405180910390a45b5050565b600073ffffffffffffffffffffffffffffffffffffffff168273ffffffffffffffffffffffffffffffffffffffff1603611171576040517f08c379a000000000000000000000000000000000000000000000000000000000815260040161116890611efd565b60405180910390fd5b61117d60008383611258565b806002600082825461118f9190611aa5565b92505081905550806000808473ffffffffffffffffffffffffffffffffffffffff1673ffffffffffffffffffffffffffffffffffffffff168152602001908152602001600020600082825401925050819055508173ffffffffffffffffffffffffffffffffffffffff16600073ffffffffffffffffffffffffffffffffffffffff167fddf252ad1be2c89b69c2b068fc378daa952ba7f163c4a11628f55a4df523b3ef8360405161124091906117a5565b60405180910390a36112546000838361125d565b5050565b505050565b505050565b61126c8282610784565b6112e357611279816112e7565b6112878360001c6020611314565b604051602001611298929190611ff1565b6040516020818303038152906040526040517f08c379a00000000000000000000000000000000000000000000000000000000081526004016112da91906116a0565b60405180910390fd5b5050565b606061130d8273ffffffffffffffffffffffffffffffffffffffff16601460ff16611314565b9050919050565b606060006002836002611327919061202b565b6113319190611aa5565b67ffffffffffffffff81111561134a5761134961206d565b5b6040519080825280601f01601f19166020018201604052801561137c5781602001600182028036833780820191505090505b5090507f3000000000000000000000000000000000000000000000000000000000000000816000815181106113b4576113b361209c565b5b60200101907effffffffffffffffffffffffffffffffffffffffffffffffffffffffffffff1916908160001a9053507f7800000000000000000000000000000000000000000000000000000000000000816001815181106114185761141761209c565b5b60200101907effffffffffffffffffffffffffffffffffffffffffffffffffffffffffffff1916908160001a90535060006001846002611458919061202b565b6114629190611aa5565b90505b6001811115611502577f3031323334353637383961626364656600000000000000000000000000000000600f8616601081106114a4576114a361209c565b5b1a60f81b8282815181106114bb576114ba61209c565b5b60200101907effffffffffffffffffffffffffffffffffffffffffffffffffffffffffffff1916908160001a905350600485901c9450806114fb906120cb565b9050611465565b5060008414611546576040517f08c379a000000000000000000000000000000000000000000000000000000000815260040161153d90612140565b60405180910390fd5b8091505092915050565b600080fd5b60007fffffffff0000000000000000000000000000000000000000000000000000000082169050919050565b61158a81611555565b811461159557600080fd5b50565b6000813590506115a781611581565b92915050565b6000602082840312156115c3576115c2611550565b5b60006115d184828501611598565b91505092915050565b60008115159050919050565b6115ef816115da565b82525050565b600060208201905061160a60008301846115e6565b92915050565b600081519050919050565b600082825260208201905092915050565b60005b8381101561164a57808201518184015260208101905061162f565b60008484015250505050565b6000601f19601f8301169050919050565b600061167282611610565b61167c818561161b565b935061168c81856020860161162c565b61169581611656565b840191505092915050565b600060208201905081810360008301526116ba8184611667565b905092915050565b600073ffffffffffffffffffffffffffffffffffffffff82169050919050565b60006116ed826116c2565b9050919050565b6116fd816116e2565b811461170857600080fd5b50565b60008135905061171a816116f4565b92915050565b6000819050919050565b61173381611720565b811461173e57600080fd5b50565b6000813590506117508161172a565b92915050565b6000806040838503121561176d5761176c611550565b5b600061177b8582860161170b565b925050602061178c85828601611741565b9150509250929050565b61179f81611720565b82525050565b60006020820190506117ba6000830184611796565b92915050565b6000806000606084860312156117d9576117d8611550565b5b60006117e78682870161170b565b93505060206117f88682870161170b565b925050604061180986828701611741565b9150509250925092565b6000819050919050565b61182681611813565b811461183157600080fd5b50565b6000813590506118438161181d565b92915050565b60006020828403121561185f5761185e611550565b5b600061186d84828501611834565b91505092915050565b61187f81611813565b82525050565b600060208201905061189a6000830184611876565b92915050565b600080604083850312156118b7576118b6611550565b5b60006118c585828601611834565b92505060206118d68582860161170b565b9150509250929050565b600060ff82169050919050565b6118f6816118e0565b82525050565b600060208201905061191160008301846118ed565b92915050565b60006020828403121561192d5761192c611550565b5b600061193b8482850161170b565b91505092915050565b6000806040838503121561195b5761195a611550565b5b60006119698582860161170b565b925050602061197a8582860161170b565b9150509250929050565b7f4e487b7100000000000000000000000000000000000000000000000000000000600052602260045260246000fd5b600060028204905060018216806119cb57607f821691505b6020821081036119de576119dd611984565b5b50919050565b7f416363657373436f6e74726f6c3a2063616e206f6e6c792072656e6f756e636560008201527f20726f6c657320666f722073656c660000000000000000000000000000000000602082015250565b6000611a40602f8361161b565b9150611a4b826119e4565b604082019050919050565b60006020820190508181036000830152611a6f81611a33565b9050919050565b7f4e487b7100000000000000000000000000000000000000000000000000000000600052601160045260246000fd5b6000611ab082611720565b9150611abb83611720565b9250828201905080821115611ad357611ad2611a76565b5b92915050565b7f45524332303a2064656372656173656420616c6c6f77616e63652062656c6f7760008201527f207a65726f000000000000000000000000000000000000000000000000000000602082015250565b6000611b3560258361161b565b9150611b4082611ad9565b604082019050919050565b60006020820190508181036000830152611b6481611b28565b9050919050565b7f45524332303a20617070726f76652066726f6d20746865207a65726f2061646460008201527f7265737300000000000000000000000000000000000000000000000000000000602082015250565b6000611bc760248361161b565b9150611bd282611b6b565b604082019050919050565b60006020820190508181036000830152611bf681611bba565b9050919050565b7f45524332303a20617070726f766520746f20746865207a65726f20616464726560008201527f7373000000000000000000000000000000000000000000000000000000000000602082015250565b6000611c5960228361161b565b9150611c6482611bfd565b604082019050919050565b60006020820190508181036000830152611c8881611c4c565b9050919050565b7f45524332303a20696e73756666696369656e7420616c6c6f77616e6365000000600082015250565b6000611cc5601d8361161b565b9150611cd082611c8f565b602082019050919050565b60006020820190508181036000830152611cf481611cb8565b9050919050565b7f45524332303a207472616e736665722066726f6d20746865207a65726f20616460008201527f6472657373000000000000000000000000000000000000000000000000000000602082015250565b6000611d5760258361161b565b9150611d6282611cfb565b604082019050919050565b60006020820190508181036000830152611d8681611d4a565b9050919050565b7f45524332303a207472616e7366657220746f20746865207a65726f206164647260008201527f6573730000000000000000000000000000000000000000000000000000000000602082015250565b6000611de960238361161b565b9150611df482611d8d565b604082019050919050565b60006020820190508181036000830152611e1881611ddc565b9050919050565b7f45524332303a207472616e7366657220616d6f756e742065786365656473206260008201527f616c616e63650000000000000000000000000000000000000000000000000000602082015250565b6000611e7b60268361161b565b9150611e8682611e1f565b604082019050919050565b60006020820190508181036000830152611eaa81611e6e565b9050919050565b7f45524332303a206d696e7420746f20746865207a65726f206164647265737300600082015250565b6000611ee7601f8361161b565b9150611ef282611eb1565b602082019050919050565b60006020820190508181036000830152611f1681611eda565b9050919050565b600081905092915050565b7f416363657373436f6e74726f6c3a206163636f756e7420000000000000000000600082015250565b6000611f5e601783611f1d565b9150611f6982611f28565b601782019050919050565b6000611f7f82611610565b611f898185611f1d565b9350611f9981856020860161162c565b80840191505092915050565b7f206973206d697373696e6720726f6c6520000000000000000000000000000000600082015250565b6000611fdb601183611f1d565b9150611fe682611fa5565b601182019050919050565b6000611ffc82611f51565b91506120088285611f74565b915061201382611fce565b915061201f8284611f74565b91508190509392505050565b600061203682611720565b915061204183611720565b925082820261204f81611720565b9150828204841483151761206657612065611a76565b5b5092915050565b7f4e487b7100000000000000000000000000000000000000000000000000000000600052604160045260246000fd5b7f4e487b7100000000000000000000000000000000000000000000000000000000600052603260045260246000fd5b60006120d682611720565b9150600082036120e9576120e8611a76565b5b600182039050919050565b7f537472696e67733a20686578206c656e67746820696e73756666696369656e74600082015250565b600061212a60208361161b565b9150612135826120f4565b602082019050919050565b600060208201905081810360008301526121598161211d565b905091905056fea264697066735822122098a9d9c2b402bfd65315fa02b5e90dc8ec9c2f5997e3687c6e213742525e740064736f6c63430008110033",
  "linkReferences": {},
  "deployedLinkReferences": {}
}