{
  "_format": "hh-sol-artifact-1",
  "contractName": "ToyMoriesHold2Earn",
  "sourceName": "contracts/ToyMoriesHold2Earn.sol",
  "abi": [
    {
      "inputs": [
        {
          "internalType": "contract IERC721",
          "name": "_toyMories",
          "type": "address"
        },
        {
          "internalType": "contract IERC721",
          "name": "_toyPets",
          "type": "address"
        },
        {
          "internalType": "contract IToken",
          "name": "_rewardsToken",
          "type": "address"
        }
      ],
      "stateMutability": "nonpayable",
      "type": "constructor"
    },
    {
      "anonymous": false,
      "inputs": [
        {
          "indexed": true,
          "internalType": "address",
          "name": "previousOwner",
          "type": "address"
        },
        {
          "indexed": true,
          "internalType": "address",
          "name": "newOwner",
          "type": "address"
        }
      ],
      "name": "OwnershipTransferred",
      "type": "event"
    },
    {
      "anonymous": false,
      "inputs": [
        {
          "indexed": false,
          "internalType": "address",
          "name": "account",
          "type": "address"
        }
      ],
      "name": "Paused",
      "type": "event"
    },
    {
      "anonymous": false,
      "inputs": [
        {
          "indexed": false,
          "internalType": "address",
          "name": "account",
          "type": "address"
        }
      ],
      "name": "Unpaused",
      "type": "event"
    },
    {
      "inputs": [
        {
          "internalType": "address",
          "name": "_address",
          "type": "address"
        }
      ],
      "name": "calculateRewards",
      "outputs": [
        {
          "internalType": "uint256",
          "name": "_rewards",
          "type": "uint256"
        }
      ],
      "stateMutability": "view",
      "type": "function"
    },
    {
      "inputs": [
        {
          "internalType": "address",
          "name": "_address",
          "type": "address"
        }
      ],
      "name": "claimRewards",
      "outputs": [],
      "stateMutability": "nonpayable",
      "type": "function"
    },
    {
      "inputs": [],
      "name": "endTime",
      "outputs": [
        {
          "internalType": "uint256",
          "name": "",
          "type": "uint256"
        }
      ],
      "stateMutability": "view",
      "type": "function"
    },
    {
      "inputs": [
        {
          "internalType": "address",
          "name": "",
          "type": "address"
        }
      ],
      "name": "lastClaimedTime",
      "outputs": [
        {
          "internalType": "uint256",
          "name": "",
          "type": "uint256"
        }
      ],
      "stateMutability": "view",
      "type": "function"
    },
    {
      "inputs": [],
      "name": "moriesRewardsPerDay",
      "outputs": [
        {
          "internalType": "uint256",
          "name": "",
          "type": "uint256"
        }
      ],
      "stateMutability": "view",
      "type": "function"
    },
    {
      "inputs": [],
      "name": "owner",
      "outputs": [
        {
          "internalType": "address",
          "name": "",
          "type": "address"
        }
      ],
      "stateMutability": "view",
      "type": "function"
    },
    {
      "inputs": [],
      "name": "pause",
      "outputs": [],
      "stateMutability": "nonpayable",
      "type": "function"
    },
    {
      "inputs": [],
      "name": "paused",
      "outputs": [
        {
          "internalType": "bool",
          "name": "",
          "type": "bool"
        }
      ],
      "stateMutability": "view",
      "type": "function"
    },
    {
      "inputs": [],
      "name": "petsRewardsPerDay",
      "outputs": [
        {
          "internalType": "uint256",
          "name": "",
          "type": "uint256"
        }
      ],
      "stateMutability": "view",
      "type": "function"
    },
    {
      "inputs": [],
      "name": "renounceOwnership",
      "outputs": [],
      "stateMutability": "nonpayable",
      "type": "function"
    },
    {
      "inputs": [],
      "name": "rewardsToken",
      "outputs": [
        {
          "internalType": "contract IToken",
          "name": "",
          "type": "address"
        }
      ],
      "stateMutability": "view",
      "type": "function"
    },
    {
      "inputs": [
        {
          "internalType": "uint256",
          "name": "_timestamp",
          "type": "uint256"
        }
      ],
      "name": "setEndTime",
      "outputs": [],
      "stateMutability": "nonpayable",
      "type": "function"
    },
    {
      "inputs": [
        {
          "internalType": "uint256",
          "name": "_moriesRewardsPerDay",
          "type": "uint256"
        },
        {
          "internalType": "uint256",
          "name": "_petsRewardsPerDay",
          "type": "uint256"
        }
      ],
      "name": "setRewardsPerDay",
      "outputs": [],
      "stateMutability": "nonpayable",
      "type": "function"
    },
    {
      "inputs": [
        {
          "internalType": "uint256",
          "name": "_timestamp",
          "type": "uint256"
        }
      ],
      "name": "setStartTime",
      "outputs": [],
      "stateMutability": "nonpayable",
      "type": "function"
    },
    {
      "inputs": [],
      "name": "startTime",
      "outputs": [
        {
          "internalType": "uint256",
          "name": "",
          "type": "uint256"
        }
      ],
      "stateMutability": "view",
      "type": "function"
    },
    {
      "inputs": [],
      "name": "toyMories",
      "outputs": [
        {
          "internalType": "contract IERC721",
          "name": "",
          "type": "address"
        }
      ],
      "stateMutability": "view",
      "type": "function"
    },
    {
      "inputs": [],
      "name": "toyPets",
      "outputs": [
        {
          "internalType": "contract IERC721",
          "name": "",
          "type": "address"
        }
      ],
      "stateMutability": "view",
      "type": "function"
    },
    {
      "inputs": [
        {
          "internalType": "address",
          "name": "newOwner",
          "type": "address"
        }
      ],
      "name": "transferOwnership",
      "outputs": [],
      "stateMutability": "nonpayable",
      "type": "function"
    },
    {
      "inputs": [],
      "name": "unpause",
      "outputs": [],
      "stateMutability": "nonpayable",
      "type": "function"
    }
  ],
  "bytecode": "0x60e0604052678ac7230489e800006005556801158e460913d000006006553480156200002a57600080fd5b50604051620019f4380380620019f48339818101604052810190620000509190620002c9565b6001600081905550620000786200006c6200013860201b60201c565b6200014060201b60201c565b6000600160146101000a81548160ff0219169083151502179055508273ffffffffffffffffffffffffffffffffffffffff1660a08173ffffffffffffffffffffffffffffffffffffffff16815250508173ffffffffffffffffffffffffffffffffffffffff1660c08173ffffffffffffffffffffffffffffffffffffffff16815250508073ffffffffffffffffffffffffffffffffffffffff1660808173ffffffffffffffffffffffffffffffffffffffff168152505050505062000325565b600033905090565b6000600160009054906101000a900473ffffffffffffffffffffffffffffffffffffffff16905081600160006101000a81548173ffffffffffffffffffffffffffffffffffffffff021916908373ffffffffffffffffffffffffffffffffffffffff1602179055508173ffffffffffffffffffffffffffffffffffffffff168173ffffffffffffffffffffffffffffffffffffffff167f8be0079c531659141344cd1fd0a4f28419497f9722a3daafe3b4186f6b6457e060405160405180910390a35050565b600080fd5b600073ffffffffffffffffffffffffffffffffffffffff82169050919050565b600062000238826200020b565b9050919050565b60006200024c826200022b565b9050919050565b6200025e816200023f565b81146200026a57600080fd5b50565b6000815190506200027e8162000253565b92915050565b600062000291826200022b565b9050919050565b620002a38162000284565b8114620002af57600080fd5b50565b600081519050620002c38162000298565b92915050565b600080600060608486031215620002e557620002e462000206565b5b6000620002f5868287016200026d565b935050602062000308868287016200026d565b92505060406200031b86828701620002b2565b9150509250925092565b60805160a05160c05161167c62000378600039600081816104480152818161076101526108fa0152600081816103aa015281816106fb01526108570152600081816107970152610a69015261167c6000f3fe608060405234801561001057600080fd5b50600436106101215760003560e01c806373819ee0116100ad578063ccb98ffc11610071578063ccb98ffc1461029c578063d1af0c7d146102b8578063ef5cfb8c146102d6578063f2fde38b146102f2578063f3f91fa01461030e57610121565b806373819ee01461021a57806378e97925146102385780638456cb59146102565780638da5cb5b14610260578063c75c10301461027e57610121565b80634fa91720116100f45780634fa91720146101885780635c08a943146101a45780635c975abb146101c257806364ab8675146101e0578063715018a61461021057610121565b80631bf3b1e8146101265780633197cbb6146101445780633e0a322d146101625780633f4ba83a1461017e575b600080fd5b61012e61033e565b60405161013b9190610eb1565b60405180910390f35b61014c610344565b6040516101599190610eb1565b60405180910390f35b61017c60048036038101906101779190610efd565b61034a565b005b61018661035c565b005b6101a2600480360381019061019d9190610f2a565b61036e565b005b6101ac610388565b6040516101b99190610eb1565b60405180910390f35b6101ca61038e565b6040516101d79190610f85565b60405180910390f35b6101fa60048036038101906101f59190610ffe565b6103a5565b6040516102079190610eb1565b60405180910390f35b6102186106e5565b005b6102226106f9565b60405161022f919061108a565b60405180910390f35b61024061071d565b60405161024d9190610eb1565b60405180910390f35b61025e610723565b005b610268610735565b60405161027591906110b4565b60405180910390f35b61028661075f565b604051610293919061108a565b60405180910390f35b6102b660048036038101906102b19190610efd565b610783565b005b6102c0610795565b6040516102cd91906110f0565b60405180910390f35b6102f060048036038101906102eb9190610ffe565b6107b9565b005b61030c60048036038101906103079190610ffe565b610b00565b005b61032860048036038101906103239190610ffe565b610b83565b6040516103359190610eb1565b60405180910390f35b60055481565b60045481565b610352610b9b565b8060038190555050565b610364610b9b565b61036c610c19565b565b610376610b9b565b81600581905550806006819055505050565b60065481565b6000600160149054906101000a900460ff16905090565b6000807f000000000000000000000000000000000000000000000000000000000000000073ffffffffffffffffffffffffffffffffffffffff166370a08231846040518263ffffffff1660e01b815260040161040191906110b4565b602060405180830381865afa15801561041e573d6000803e3d6000fd5b505050506040513d601f19601f820116820180604052508101906104429190611120565b905060007f000000000000000000000000000000000000000000000000000000000000000073ffffffffffffffffffffffffffffffffffffffff166370a08231856040518263ffffffff1660e01b815260040161049f91906110b4565b602060405180830381865afa1580156104bc573d6000803e3d6000fd5b505050506040513d601f19601f820116820180604052508101906104e09190611120565b90506000600260008673ffffffffffffffffffffffffffffffffffffffff1673ffffffffffffffffffffffffffffffffffffffff16815260200190815260200160002054905060008114801561053857506004544211155b1561059357620151806006548361054f919061117c565b6005548561055d919061117c565b61056791906111be565b6003544261057591906111f2565b61057f919061117c565b6105899190611255565b93505050506106e0565b6000811480156105a4575060045442115b156106015762015180600654836105bb919061117c565b600554856105c9919061117c565b6105d391906111be565b6003546004546105e391906111f2565b6105ed919061117c565b6105f79190611255565b93505050506106e0565b600454421180156106125750600081115b1561066d576201518060065483610629919061117c565b60055485610637919061117c565b61064191906111be565b8260045461064f91906111f2565b610659919061117c565b6106639190611255565b93505050506106e0565b6004544211801561067f575060045481115b1561069057600093505050506106e0565b62015180600654836106a2919061117c565b600554856106b0919061117c565b6106ba91906111be565b82426106c691906111f2565b6106d0919061117c565b6106da9190611255565b93505050505b919050565b6106ed610b9b565b6106f76000610c7c565b565b7f000000000000000000000000000000000000000000000000000000000000000081565b60035481565b61072b610b9b565b610733610d42565b565b6000600160009054906101000a900473ffffffffffffffffffffffffffffffffffffffff16905090565b7f000000000000000000000000000000000000000000000000000000000000000081565b61078b610b9b565b8060048190555050565b7f000000000000000000000000000000000000000000000000000000000000000081565b6107c1610da4565b6107c9610df3565b60006003540361080e576040517f08c379a0000000000000000000000000000000000000000000000000000000008152600401610805906112e3565b60405180910390fd5b600354421015610853576040517f08c379a000000000000000000000000000000000000000000000000000000000815260040161084a906112e3565b60405180910390fd5b60007f000000000000000000000000000000000000000000000000000000000000000073ffffffffffffffffffffffffffffffffffffffff166370a08231836040518263ffffffff1660e01b81526004016108ae91906110b4565b602060405180830381865afa1580156108cb573d6000803e3d6000fd5b505050506040513d601f19601f820116820180604052508101906108ef9190611120565b1180610994575060007f000000000000000000000000000000000000000000000000000000000000000073ffffffffffffffffffffffffffffffffffffffff166370a08231836040518263ffffffff1660e01b815260040161095191906110b4565b602060405180830381865afa15801561096e573d6000803e3d6000fd5b505050506040513d601f19601f820116820180604052508101906109929190611120565b115b6109d3576040517f08c379a00000000000000000000000000000000000000000000000000000000081526004016109ca9061134f565b60405180910390fd5b60006109de826103a5565b905060008111610a23576040517f08c379a0000000000000000000000000000000000000000000000000000000008152600401610a1a906113bb565b60405180910390fd5b42600260008473ffffffffffffffffffffffffffffffffffffffff1673ffffffffffffffffffffffffffffffffffffffff168152602001908152602001600020819055507f000000000000000000000000000000000000000000000000000000000000000073ffffffffffffffffffffffffffffffffffffffff1663449a52f883836040518363ffffffff1660e01b8152600401610ac29291906113db565b600060405180830381600087803b158015610adc57600080fd5b505af1158015610af0573d6000803e3d6000fd5b5050505050610afd610e3d565b50565b610b08610b9b565b600073ffffffffffffffffffffffffffffffffffffffff168173ffffffffffffffffffffffffffffffffffffffff1603610b77576040517f08c379a0000000000000000000000000000000000000000000000000000000008152600401610b6e90611476565b60405180910390fd5b610b8081610c7c565b50565b60026020528060005260406000206000915090505481565b610ba3610e47565b73ffffffffffffffffffffffffffffffffffffffff16610bc1610735565b73ffffffffffffffffffffffffffffffffffffffff1614610c17576040517f08c379a0000000000000000000000000000000000000000000000000000000008152600401610c0e906114e2565b60405180910390fd5b565b610c21610e4f565b6000600160146101000a81548160ff0219169083151502179055507f5db9ee0a495bf2e6ff9c91a7834c1ba4fdd244a5e8aa4e537bd38aeae4b073aa610c65610e47565b604051610c7291906110b4565b60405180910390a1565b6000600160009054906101000a900473ffffffffffffffffffffffffffffffffffffffff16905081600160006101000a81548173ffffffffffffffffffffffffffffffffffffffff021916908373ffffffffffffffffffffffffffffffffffffffff1602179055508173ffffffffffffffffffffffffffffffffffffffff168173ffffffffffffffffffffffffffffffffffffffff167f8be0079c531659141344cd1fd0a4f28419497f9722a3daafe3b4186f6b6457e060405160405180910390a35050565b610d4a610df3565b60018060146101000a81548160ff0219169083151502179055507f62e78cea01bee320cd4e420270b5ea74000d11b0c9f74754ebdbfc544b05a258610d8d610e47565b604051610d9a91906110b4565b60405180910390a1565b600260005403610de9576040517f08c379a0000000000000000000000000000000000000000000000000000000008152600401610de09061154e565b60405180910390fd5b6002600081905550565b610dfb61038e565b15610e3b576040517f08c379a0000000000000000000000000000000000000000000000000000000008152600401610e32906115ba565b60405180910390fd5b565b6001600081905550565b600033905090565b610e5761038e565b610e96576040517f08c379a0000000000000000000000000000000000000000000000000000000008152600401610e8d90611626565b60405180910390fd5b565b6000819050919050565b610eab81610e98565b82525050565b6000602082019050610ec66000830184610ea2565b92915050565b600080fd5b610eda81610e98565b8114610ee557600080fd5b50565b600081359050610ef781610ed1565b92915050565b600060208284031215610f1357610f12610ecc565b5b6000610f2184828501610ee8565b91505092915050565b60008060408385031215610f4157610f40610ecc565b5b6000610f4f85828601610ee8565b9250506020610f6085828601610ee8565b9150509250929050565b60008115159050919050565b610f7f81610f6a565b82525050565b6000602082019050610f9a6000830184610f76565b92915050565b600073ffffffffffffffffffffffffffffffffffffffff82169050919050565b6000610fcb82610fa0565b9050919050565b610fdb81610fc0565b8114610fe657600080fd5b50565b600081359050610ff881610fd2565b92915050565b60006020828403121561101457611013610ecc565b5b600061102284828501610fe9565b91505092915050565b6000819050919050565b600061105061104b61104684610fa0565b61102b565b610fa0565b9050919050565b600061106282611035565b9050919050565b600061107482611057565b9050919050565b61108481611069565b82525050565b600060208201905061109f600083018461107b565b92915050565b6110ae81610fc0565b82525050565b60006020820190506110c960008301846110a5565b92915050565b60006110da82611057565b9050919050565b6110ea816110cf565b82525050565b600060208201905061110560008301846110e1565b92915050565b60008151905061111a81610ed1565b92915050565b60006020828403121561113657611135610ecc565b5b60006111448482850161110b565b91505092915050565b7f4e487b7100000000000000000000000000000000000000000000000000000000600052601160045260246000fd5b600061118782610e98565b915061119283610e98565b92508282026111a081610e98565b915082820484148315176111b7576111b661114d565b5b5092915050565b60006111c982610e98565b91506111d483610e98565b92508282019050808211156111ec576111eb61114d565b5b92915050565b60006111fd82610e98565b915061120883610e98565b92508282039050818111156112205761121f61114d565b5b92915050565b7f4e487b7100000000000000000000000000000000000000000000000000000000600052601260045260246000fd5b600061126082610e98565b915061126b83610e98565b92508261127b5761127a611226565b5b828204905092915050565b600082825260208201905092915050565b7f486f6c64324561726e3a204e6f74207374617274656420796574000000000000600082015250565b60006112cd601a83611286565b91506112d882611297565b602082019050919050565b600060208201905081810360008301526112fc816112c0565b9050919050565b7f486f6c64324561726e3a204e6f204e4654730000000000000000000000000000600082015250565b6000611339601283611286565b915061134482611303565b602082019050919050565b600060208201905081810360008301526113688161132c565b9050919050565b7f486f6c64324561726e3a204e6f20726577617264730000000000000000000000600082015250565b60006113a5601583611286565b91506113b08261136f565b602082019050919050565b600060208201905081810360008301526113d481611398565b9050919050565b60006040820190506113f060008301856110a5565b6113fd6020830184610ea2565b9392505050565b7f4f776e61626c653a206e6577206f776e657220697320746865207a65726f206160008201527f6464726573730000000000000000000000000000000000000000000000000000602082015250565b6000611460602683611286565b915061146b82611404565b604082019050919050565b6000602082019050818103600083015261148f81611453565b9050919050565b7f4f776e61626c653a2063616c6c6572206973206e6f7420746865206f776e6572600082015250565b60006114cc602083611286565b91506114d782611496565b602082019050919050565b600060208201905081810360008301526114fb816114bf565b9050919050565b7f5265656e7472616e637947756172643a207265656e7472616e742063616c6c00600082015250565b6000611538601f83611286565b915061154382611502565b602082019050919050565b600060208201905081810360008301526115678161152b565b9050919050565b7f5061757361626c653a2070617573656400000000000000000000000000000000600082015250565b60006115a4601083611286565b91506115af8261156e565b602082019050919050565b600060208201905081810360008301526115d381611597565b9050919050565b7f5061757361626c653a206e6f7420706175736564000000000000000000000000600082015250565b6000611610601483611286565b915061161b826115da565b602082019050919050565b6000602082019050818103600083015261163f81611603565b905091905056fea26469706673582212203228877f79649e106836eceaa81cba6123be5dc21011a560e29d07d678e3a79c64736f6c63430008110033",
  "linkReferences": {},
  "deployedLinkReferences": {}
}