{
  "abi": [
    {
      "inputs": [
        {
          "internalType": "contract IERC721",
          "name": "_nftCollection",
          "type": "address"
        },
        {
          "internalType": "contract IERC20",
          "name": "_rewardsToken",
          "type": "address"
        }
      ],
      "stateMutability": "nonpayable",
      "type": "constructor"
    },
    {
      "inputs": [],
      "name": "Deadline",
      "outputs": [
        {
          "internalType": "uint256",
          "name": "",
          "type": "uint256"
        }
      ],
      "stateMutability": "view",
      "type": "function"
    },
    {
      "inputs": [],
      "name": "InitTime",
      "outputs": [
        {
          "internalType": "uint256",
          "name": "",
          "type": "uint256"
        }
      ],
      "stateMutability": "view",
      "type": "function"
    },
    {
      "inputs": [
        {
          "internalType": "uint256",
          "name": "_tokenId",
          "type": "uint256"
        }
      ],
      "name": "availableRewards",
      "outputs": [
        {
          "internalType": "uint256",
          "name": "",
          "type": "uint256"
        }
      ],
      "stateMutability": "view",
      "type": "function"
    },
    {
      "inputs": [
        {
          "internalType": "uint256[]",
          "name": "_tokenIds",
          "type": "uint256[]"
        }
      ],
      "name": "batchClaimRewards",
      "outputs": [],
      "stateMutability": "nonpayable",
      "type": "function"
    },
    {
      "inputs": [
        {
          "internalType": "uint256",
          "name": "_tokenId",
          "type": "uint256"
        }
      ],
      "name": "claimRewards",
      "outputs": [],
      "stateMutability": "nonpayable",
      "type": "function"
    },
    {
      "inputs": [],
      "name": "nftCollection",
      "outputs": [
        {
          "internalType": "contract IERC721",
          "name": "",
          "type": "address"
        }
      ],
      "stateMutability": "view",
      "type": "function"
    },
    {
      "inputs": [],
      "name": "rewardsToken",
      "outputs": [
        {
          "internalType": "contract IERC20",
          "name": "",
          "type": "address"
        }
      ],
      "stateMutability": "view",
      "type": "function"
    },
    {
      "inputs": [
        {
          "internalType": "uint256",
          "name": "_Deadline",
          "type": "uint256"
        }
      ],
      "name": "setDeadline",
      "outputs": [],
      "stateMutability": "nonpayable",
      "type": "function"
    },
    {
      "inputs": [
        {
          "internalType": "uint256",
          "name": "_initTimestamp",
          "type": "uint256"
        }
      ],
      "name": "setInitTime",
      "outputs": [],
      "stateMutability": "nonpayable",
      "type": "function"
    },
    {
      "inputs": [
        {
          "internalType": "address",
          "name": "_newOwner",
          "type": "address"
        }
      ],
      "name": "setNewOwner",
      "outputs": [],
      "stateMutability": "nonpayable",
      "type": "function"
    }
  ],
  "devdoc": {
    "kind": "dev",
    "methods": {},
    "version": 1
  },
  "evm": {
    "assembly": "    /* \"ToyMoriesHold2Earn.sol\":780:5184  contract ToyMoriesHold2Earn is ReentrancyGuard {... */\n  mstore(0x40, 0xc0)\n    /* \"ToyMoriesHold2Earn.sol\":1748:1756  10 ether */\n  0x8ac7230489e80000\n    /* \"ToyMoriesHold2Earn.sol\":1716:1756  uint256 private rewardsPerDay = 10 ether */\n  0x04\n  sstore\n    /* \"ToyMoriesHold2Earn.sol\":1086:1261  constructor(IERC721 _nftCollection, IERC20 _rewardsToken) {... */\n  callvalue\n  dup1\n  iszero\n  tag_1\n  jumpi\n  0x00\n  dup1\n  revert\ntag_1:\n  pop\n  mload(0x40)\n  sub(codesize, bytecodeSize)\n  dup1\n  bytecodeSize\n  dup4\n  codecopy\n  dup2\n  add\n  0x40\n  dup2\n  swap1\n  mstore\n  tag_2\n  swap2\n  tag_3\n  jump\t// in\ntag_2:\n    /* \"@openzeppelin/contracts/security/ReentrancyGuard.sol\":1701:1702   */\n  0x01\n    /* \"@openzeppelin/contracts/security/ReentrancyGuard.sol\":1806:1813   */\n  0x00\n    /* \"@openzeppelin/contracts/security/ReentrancyGuard.sol\":1806:1828   */\n  dup2\n  swap1\n  sstore\n  sub(shl(0xa0, 0x01), 0x01)\n    /* \"ToyMoriesHold2Earn.sol\":1155:1185  nftCollection = _nftCollection */\n  swap3\n  dup4\n  and\n  0xa0\n  mstore\n    /* \"ToyMoriesHold2Earn.sol\":1196:1224  rewardsToken = _rewardsToken */\n  swap2\n  and\n  0x80\n  mstore\n    /* \"ToyMoriesHold2Earn.sol\":1235:1253  owner = msg.sender */\n  dup1\n  sload\n  not(sub(shl(0xa0, 0x01), 0x01))\n  and\n    /* \"ToyMoriesHold2Earn.sol\":1243:1253  msg.sender */\n  caller\n    /* \"ToyMoriesHold2Earn.sol\":1235:1253  owner = msg.sender */\n  or\n  swap1\n  sstore\n    /* \"ToyMoriesHold2Earn.sol\":780:5184  contract ToyMoriesHold2Earn is ReentrancyGuard {... */\n  jump(tag_10)\n    /* \"#utility.yul\":14:154   */\ntag_9:\n  sub(shl(0xa0, 0x01), 0x01)\n    /* \"#utility.yul\":98:129   */\n  dup2\n  and\n    /* \"#utility.yul\":88:130   */\n  dup2\n  eq\n    /* \"#utility.yul\":78:148   */\n  tag_12\n  jumpi\n    /* \"#utility.yul\":144:145   */\n  0x00\n    /* \"#utility.yul\":141:142   */\n  dup1\n    /* \"#utility.yul\":134:146   */\n  revert\n    /* \"#utility.yul\":78:148   */\ntag_12:\n    /* \"#utility.yul\":14:154   */\n  pop\n  jump\t// out\n    /* \"#utility.yul\":159:591   */\ntag_3:\n    /* \"#utility.yul\":267:273   */\n  0x00\n    /* \"#utility.yul\":275:281   */\n  dup1\n    /* \"#utility.yul\":328:330   */\n  0x40\n    /* \"#utility.yul\":316:325   */\n  dup4\n    /* \"#utility.yul\":307:314   */\n  dup6\n    /* \"#utility.yul\":303:326   */\n  sub\n    /* \"#utility.yul\":299:331   */\n  slt\n    /* \"#utility.yul\":296:348   */\n  iszero\n  tag_14\n  jumpi\n    /* \"#utility.yul\":344:345   */\n  0x00\n    /* \"#utility.yul\":341:342   */\n  dup1\n    /* \"#utility.yul\":334:346   */\n  revert\n    /* \"#utility.yul\":296:348   */\ntag_14:\n    /* \"#utility.yul\":376:385   */\n  dup3\n    /* \"#utility.yul\":370:386   */\n  mload\n    /* \"#utility.yul\":395:435   */\n  tag_15\n    /* \"#utility.yul\":429:434   */\n  dup2\n    /* \"#utility.yul\":395:435   */\n  tag_9\n  jump\t// in\ntag_15:\n    /* \"#utility.yul\":504:506   */\n  0x20\n    /* \"#utility.yul\":489:507   */\n  dup5\n  add\n    /* \"#utility.yul\":483:508   */\n  mload\n    /* \"#utility.yul\":454:459   */\n  swap1\n  swap3\n  pop\n    /* \"#utility.yul\":517:559   */\n  tag_16\n    /* \"#utility.yul\":483:508   */\n  dup2\n    /* \"#utility.yul\":517:559   */\n  tag_9\n  jump\t// in\ntag_16:\n    /* \"#utility.yul\":578:585   */\n  dup1\n    /* \"#utility.yul\":568:585   */\n  swap2\n  pop\n  pop\n    /* \"#utility.yul\":159:591   */\n  swap3\n  pop\n  swap3\n  swap1\n  pop\n  jump\t// out\ntag_10:\n    /* \"ToyMoriesHold2Earn.sol\":780:5184  contract ToyMoriesHold2Earn is ReentrancyGuard {... */\n  mload(0x80)\n  mload(0xa0)\n  codecopy(0x00, dataOffset(sub_0), dataSize(sub_0))\n  0x00\n  assignImmutable(\"0x8e8fab5f003314da8d1873ea7720e8d9f47650136d916064d1edb8a11d682624\")\n  0x00\n  assignImmutable(\"0x5c4c6aa067b6f8e6cb38e6ab843832a94d1712d661a04d73c517d6a1931a9e5d\")\n  return(0x00, dataSize(sub_0))\nstop\n\nsub_0: assembly {\n        /* \"ToyMoriesHold2Earn.sol\":780:5184  contract ToyMoriesHold2Earn is ReentrancyGuard {... */\n      mstore(0x40, 0x80)\n      callvalue\n      dup1\n      iszero\n      tag_1\n      jumpi\n      0x00\n      dup1\n      revert\n    tag_1:\n      pop\n      jumpi(tag_2, lt(calldatasize, 0x04))\n      shr(0xe0, calldataload(0x00))\n      dup1\n      0x6588103b\n      gt\n      tag_13\n      jumpi\n      dup1\n      0xc6f221aa\n      gt\n      tag_14\n      jumpi\n      dup1\n      0xc6f221aa\n      eq\n      tag_10\n      jumpi\n      dup1\n      0xd1af0c7d\n      eq\n      tag_11\n      jumpi\n      dup1\n      0xf5a1f5b4\n      eq\n      tag_12\n      jumpi\n      0x00\n      dup1\n      revert\n    tag_14:\n      dup1\n      0x6588103b\n      eq\n      tag_8\n      jumpi\n      dup1\n      0xa5e2f9d9\n      eq\n      tag_9\n      jumpi\n      0x00\n      dup1\n      revert\n    tag_13:\n      dup1\n      0x29183872\n      gt\n      tag_15\n      jumpi\n      dup1\n      0x29183872\n      eq\n      tag_5\n      jumpi\n      dup1\n      0x38c4c7ce\n      eq\n      tag_6\n      jumpi\n      dup1\n      0x61c02efb\n      eq\n      tag_7\n      jumpi\n      0x00\n      dup1\n      revert\n    tag_15:\n      dup1\n      0x0962ef79\n      eq\n      tag_3\n      jumpi\n      dup1\n      0x195199f6\n      eq\n      tag_4\n      jumpi\n    tag_2:\n      0x00\n      dup1\n      revert\n        /* \"ToyMoriesHold2Earn.sol\":2671:3076  function claimRewards(uint256 _tokenId) external {... */\n    tag_3:\n      tag_16\n      tag_17\n      calldatasize\n      0x04\n      tag_18\n      jump\t// in\n    tag_17:\n      tag_19\n      jump\t// in\n    tag_16:\n      stop\n        /* \"ToyMoriesHold2Earn.sol\":2436:2534  function setDeadline(uint256 _Deadline) public onlyOwner() {... */\n    tag_4:\n      tag_16\n      tag_21\n      calldatasize\n      0x04\n      tag_18\n      jump\t// in\n    tag_21:\n      tag_22\n      jump\t// in\n        /* \"ToyMoriesHold2Earn.sol\":3222:3831  function batchClaimRewards(uint256[] calldata _tokenIds) external {... */\n    tag_5:\n      tag_16\n      tag_24\n      calldatasize\n      0x04\n      tag_25\n      jump\t// in\n    tag_24:\n      tag_26\n      jump\t// in\n        /* \"ToyMoriesHold2Earn.sol\":1532:1555  uint256 public InitTime */\n    tag_6:\n      tag_27\n      sload(0x02)\n      dup2\n      jump\n    tag_27:\n      mload(0x40)\n        /* \"#utility.yul\":965:990   */\n      swap1\n      dup2\n      mstore\n        /* \"#utility.yul\":953:955   */\n      0x20\n        /* \"#utility.yul\":938:956   */\n      add\n        /* \"ToyMoriesHold2Earn.sol\":1532:1555  uint256 public InitTime */\n    tag_29:\n      mload(0x40)\n      dup1\n      swap2\n      sub\n      swap1\n      return\n        /* \"ToyMoriesHold2Earn.sol\":3890:4062  function availableRewards(uint256 _tokenId) public view returns (uint256) {... */\n    tag_7:\n      tag_27\n      tag_32\n      calldatasize\n      0x04\n      tag_18\n      jump\t// in\n    tag_32:\n      tag_33\n      jump\t// in\n        /* \"ToyMoriesHold2Earn.sol\":952:990  IERC721 public immutable nftCollection */\n    tag_8:\n      tag_35\n      immutable(\"0x8e8fab5f003314da8d1873ea7720e8d9f47650136d916064d1edb8a11d682624\")\n      dup2\n      jump\n    tag_35:\n      mload(0x40)\n      sub(shl(0xa0, 0x01), 0x01)\n        /* \"#utility.yul\":1180:1235   */\n      swap1\n      swap2\n      and\n        /* \"#utility.yul\":1162:1236   */\n      dup2\n      mstore\n        /* \"#utility.yul\":1150:1152   */\n      0x20\n        /* \"#utility.yul\":1135:1153   */\n      add\n        /* \"ToyMoriesHold2Earn.sol\":952:990  IERC721 public immutable nftCollection */\n      tag_29\n        /* \"#utility.yul\":1001:1242   */\n      jump\n        /* \"ToyMoriesHold2Earn.sol\":2257:2365  function setInitTime(uint256 _initTimestamp) public onlyOwner() {... */\n    tag_9:\n      tag_16\n      tag_40\n      calldatasize\n      0x04\n      tag_18\n      jump\t// in\n    tag_40:\n      tag_41\n      jump\t// in\n        /* \"ToyMoriesHold2Earn.sol\":1638:1661  uint256 public Deadline */\n    tag_10:\n      tag_27\n      sload(0x03)\n      dup2\n      jump\n        /* \"ToyMoriesHold2Earn.sol\":909:945  IERC20 public immutable rewardsToken */\n    tag_11:\n      tag_35\n      immutable(\"0x5c4c6aa067b6f8e6cb38e6ab843832a94d1712d661a04d73c517d6a1931a9e5d\")\n      dup2\n      jump\n        /* \"ToyMoriesHold2Earn.sol\":2094:2189  function setNewOwner(address _newOwner) public onlyOwner() {... */\n    tag_12:\n      tag_16\n      tag_50\n      calldatasize\n      0x04\n      tag_51\n      jump\t// in\n    tag_50:\n      tag_52\n      jump\t// in\n        /* \"ToyMoriesHold2Earn.sol\":2671:3076  function claimRewards(uint256 _tokenId) external {... */\n    tag_19:\n        /* \"ToyMoriesHold2Earn.sol\":2739:2770  nftCollection.ownerOf(_tokenId) */\n      mload(0x40)\n      shl(0xe1, 0x31a9108f)\n      dup2\n      mstore\n      0x04\n      dup2\n      add\n        /* \"#utility.yul\":965:990   */\n      dup3\n      swap1\n      mstore\n        /* \"ToyMoriesHold2Earn.sol\":2774:2784  msg.sender */\n      caller\n      swap1\n      sub(shl(0xa0, 0x01), 0x01)\n        /* \"ToyMoriesHold2Earn.sol\":2739:2752  nftCollection */\n      immutable(\"0x8e8fab5f003314da8d1873ea7720e8d9f47650136d916064d1edb8a11d682624\")\n        /* \"ToyMoriesHold2Earn.sol\":2739:2760  nftCollection.ownerOf */\n      and\n      swap1\n      0x6352211e\n      swap1\n        /* \"#utility.yul\":938:956   */\n      0x24\n      add\n        /* \"ToyMoriesHold2Earn.sol\":2739:2770  nftCollection.ownerOf(_tokenId) */\n      0x20\n      mload(0x40)\n      dup1\n      dup4\n      sub\n      dup2\n      dup7\n      gas\n      staticcall\n      iszero\n      dup1\n      iszero\n      tag_56\n      jumpi\n      returndatasize\n      0x00\n      dup1\n      returndatacopy\n      revert(0x00, returndatasize)\n    tag_56:\n      pop\n      pop\n      pop\n      pop\n      mload(0x40)\n      returndatasize\n      not(0x1f)\n      0x1f\n      dup3\n      add\n      and\n      dup3\n      add\n      dup1\n      0x40\n      mstore\n      pop\n      dup2\n      add\n      swap1\n      tag_57\n      swap2\n      swap1\n      tag_58\n      jump\t// in\n    tag_57:\n      sub(shl(0xa0, 0x01), 0x01)\n        /* \"ToyMoriesHold2Earn.sol\":2739:2784  nftCollection.ownerOf(_tokenId) == msg.sender */\n      and\n      eq\n        /* \"ToyMoriesHold2Earn.sol\":2731:2831  require(nftCollection.ownerOf(_tokenId) == msg.sender,... */\n      tag_59\n      jumpi\n      mload(0x40)\n      shl(0xe5, 0x461bcd)\n      dup2\n      mstore\n        /* \"#utility.yul\":2361:2363   */\n      0x20\n        /* \"ToyMoriesHold2Earn.sol\":2731:2831  require(nftCollection.ownerOf(_tokenId) == msg.sender,... */\n      0x04\n      dup3\n      add\n        /* \"#utility.yul\":2343:2364   */\n      mstore\n        /* \"#utility.yul\":2400:2402   */\n      0x19\n        /* \"#utility.yul\":2380:2398   */\n      0x24\n      dup3\n      add\n        /* \"#utility.yul\":2373:2403   */\n      mstore\n        /* \"#utility.yul\":2439:2466   */\n      0x596f7520646f6e2774206f776e207468697320746f6b656e2100000000000000\n        /* \"#utility.yul\":2419:2437   */\n      0x44\n      dup3\n      add\n        /* \"#utility.yul\":2412:2467   */\n      mstore\n        /* \"#utility.yul\":2484:2502   */\n      0x64\n      add\n        /* \"ToyMoriesHold2Earn.sol\":2731:2831  require(nftCollection.ownerOf(_tokenId) == msg.sender,... */\n    tag_60:\n      mload(0x40)\n      dup1\n      swap2\n      sub\n      swap1\n      revert\n    tag_59:\n        /* \"ToyMoriesHold2Earn.sol\":2842:2857  uint256 rewards */\n      0x00\n        /* \"ToyMoriesHold2Earn.sol\":2860:2886  calculateRewards(_tokenId) */\n      tag_62\n        /* \"ToyMoriesHold2Earn.sol\":2877:2885  _tokenId */\n      dup3\n        /* \"ToyMoriesHold2Earn.sol\":2860:2876  calculateRewards */\n      tag_63\n        /* \"ToyMoriesHold2Earn.sol\":2860:2886  calculateRewards(_tokenId) */\n      jump\t// in\n    tag_62:\n        /* \"ToyMoriesHold2Earn.sol\":2842:2886  uint256 rewards = calculateRewards(_tokenId) */\n      swap1\n      pop\n        /* \"ToyMoriesHold2Earn.sol\":2915:2916  0 */\n      0x00\n        /* \"ToyMoriesHold2Earn.sol\":2905:2912  rewards */\n      dup2\n        /* \"ToyMoriesHold2Earn.sol\":2905:2916  rewards > 0 */\n      gt\n        /* \"ToyMoriesHold2Earn.sol\":2897:2949  require(rewards > 0, \"You have no rewards to claim\") */\n      tag_64\n      jumpi\n      mload(0x40)\n      shl(0xe5, 0x461bcd)\n      dup2\n      mstore\n        /* \"#utility.yul\":2715:2717   */\n      0x20\n        /* \"ToyMoriesHold2Earn.sol\":2897:2949  require(rewards > 0, \"You have no rewards to claim\") */\n      0x04\n      dup3\n      add\n        /* \"#utility.yul\":2697:2718   */\n      mstore\n        /* \"#utility.yul\":2754:2756   */\n      0x1c\n        /* \"#utility.yul\":2734:2752   */\n      0x24\n      dup3\n      add\n        /* \"#utility.yul\":2727:2757   */\n      mstore\n        /* \"#utility.yul\":2793:2823   */\n      0x596f752068617665206e6f207265776172647320746f20636c61696d00000000\n        /* \"#utility.yul\":2773:2791   */\n      0x44\n      dup3\n      add\n        /* \"#utility.yul\":2766:2824   */\n      mstore\n        /* \"#utility.yul\":2841:2859   */\n      0x64\n      add\n        /* \"ToyMoriesHold2Earn.sol\":2897:2949  require(rewards > 0, \"You have no rewards to claim\") */\n      tag_60\n        /* \"#utility.yul\":2513:2865   */\n      jump\n        /* \"ToyMoriesHold2Earn.sol\":2897:2949  require(rewards > 0, \"You have no rewards to claim\") */\n    tag_64:\n        /* \"ToyMoriesHold2Earn.sol\":2960:2976  tokens[_tokenId] */\n      0x00\n      dup3\n      dup2\n      mstore\n        /* \"ToyMoriesHold2Earn.sol\":2960:2966  tokens */\n      0x05\n        /* \"ToyMoriesHold2Earn.sol\":2960:2976  tokens[_tokenId] */\n      0x20\n      mstore\n      0x40\n      swap1\n      keccak256\n        /* \"ToyMoriesHold2Earn.sol\":2996:3011  block.timestamp */\n      timestamp\n        /* \"ToyMoriesHold2Earn.sol\":2960:3011  tokens[_tokenId].timeOfLastUpdate = block.timestamp */\n      swap1\n      sstore\n        /* \"ToyMoriesHold2Earn.sol\":3022:3068  rewardsToken.safeTransfer(msg.sender, rewards) */\n      tag_67\n      sub(shl(0xa0, 0x01), 0x01)\n        /* \"ToyMoriesHold2Earn.sol\":3022:3034  rewardsToken */\n      immutable(\"0x5c4c6aa067b6f8e6cb38e6ab843832a94d1712d661a04d73c517d6a1931a9e5d\")\n        /* \"ToyMoriesHold2Earn.sol\":3022:3047  rewardsToken.safeTransfer */\n      and\n        /* \"ToyMoriesHold2Earn.sol\":3048:3058  msg.sender */\n      caller\n        /* \"ToyMoriesHold2Earn.sol\":3060:3067  rewards */\n      dup4\n        /* \"ToyMoriesHold2Earn.sol\":3022:3047  rewardsToken.safeTransfer */\n      tag_68\n        /* \"ToyMoriesHold2Earn.sol\":3022:3068  rewardsToken.safeTransfer(msg.sender, rewards) */\n      jump\t// in\n    tag_67:\n        /* \"ToyMoriesHold2Earn.sol\":2720:3076  {... */\n      pop\n        /* \"ToyMoriesHold2Earn.sol\":2671:3076  function claimRewards(uint256 _tokenId) external {... */\n      pop\n      jump\t// out\n        /* \"ToyMoriesHold2Earn.sol\":2436:2534  function setDeadline(uint256 _Deadline) public onlyOwner() {... */\n    tag_22:\n        /* \"ToyMoriesHold2Earn.sol\":1999:2004  owner */\n      and(sub(shl(0xa0, 0x01), 0x01), sload(0x01))\n        /* \"ToyMoriesHold2Earn.sol\":1985:1995  msg.sender */\n      caller\n        /* \"ToyMoriesHold2Earn.sol\":1985:2004  msg.sender == owner */\n      eq\n        /* \"ToyMoriesHold2Earn.sol\":1977:2022  require(msg.sender == owner, \"Not the owner\") */\n      tag_70\n      jumpi\n      mload(0x40)\n      shl(0xe5, 0x461bcd)\n      dup2\n      mstore\n        /* \"#utility.yul\":3072:3074   */\n      0x20\n        /* \"ToyMoriesHold2Earn.sol\":1977:2022  require(msg.sender == owner, \"Not the owner\") */\n      0x04\n      dup3\n      add\n        /* \"#utility.yul\":3054:3075   */\n      mstore\n        /* \"#utility.yul\":3111:3113   */\n      0x0d\n        /* \"#utility.yul\":3091:3109   */\n      0x24\n      dup3\n      add\n        /* \"#utility.yul\":3084:3114   */\n      mstore\n      shl(0x99, 0x2737ba103a34329037bbb732b9)\n        /* \"#utility.yul\":3130:3148   */\n      0x44\n      dup3\n      add\n        /* \"#utility.yul\":3123:3166   */\n      mstore\n        /* \"#utility.yul\":3183:3201   */\n      0x64\n      add\n        /* \"ToyMoriesHold2Earn.sol\":1977:2022  require(msg.sender == owner, \"Not the owner\") */\n      tag_60\n        /* \"#utility.yul\":2870:3207   */\n      jump\n        /* \"ToyMoriesHold2Earn.sol\":1977:2022  require(msg.sender == owner, \"Not the owner\") */\n    tag_70:\n        /* \"ToyMoriesHold2Earn.sol\":2506:2514  Deadline */\n      0x03\n        /* \"ToyMoriesHold2Earn.sol\":2506:2526  Deadline = _Deadline */\n      sstore\n        /* \"ToyMoriesHold2Earn.sol\":2436:2534  function setDeadline(uint256 _Deadline) public onlyOwner() {... */\n      jump\t// out\n        /* \"ToyMoriesHold2Earn.sol\":3222:3831  function batchClaimRewards(uint256[] calldata _tokenIds) external {... */\n    tag_26:\n        /* \"ToyMoriesHold2Earn.sol\":3341:3356  uint256 tokenId */\n      0x00\n      dup1\n        /* \"ToyMoriesHold2Earn.sol\":3367:3824  for (uint256 i = 0; i < _tokenIds.length; i++) {... */\n    tag_75:\n        /* \"ToyMoriesHold2Earn.sol\":3387:3407  i < _tokenIds.length */\n      dup3\n      dup2\n      lt\n        /* \"ToyMoriesHold2Earn.sol\":3367:3824  for (uint256 i = 0; i < _tokenIds.length; i++) {... */\n      iszero\n      tag_76\n      jumpi\n        /* \"ToyMoriesHold2Earn.sol\":3439:3448  _tokenIds */\n      dup4\n      dup4\n        /* \"ToyMoriesHold2Earn.sol\":3449:3450  i */\n      dup3\n        /* \"ToyMoriesHold2Earn.sol\":3439:3451  _tokenIds[i] */\n      dup2\n      dup2\n      lt\n      tag_79\n      jumpi\n      tag_79\n      tag_80\n      jump\t// in\n    tag_79:\n      swap1\n      pop\n      0x20\n      mul\n      add\n      calldataload\n        /* \"ToyMoriesHold2Earn.sol\":3429:3451  tokenId = _tokenIds[i] */\n      swap2\n      pop\n        /* \"ToyMoriesHold2Earn.sol\":3504:3514  msg.sender */\n      caller\n      sub(shl(0xa0, 0x01), 0x01)\n        /* \"ToyMoriesHold2Earn.sol\":3470:3514  nftCollection.ownerOf(tokenId) == msg.sender */\n      and\n        /* \"ToyMoriesHold2Earn.sol\":3470:3483  nftCollection */\n      immutable(\"0x8e8fab5f003314da8d1873ea7720e8d9f47650136d916064d1edb8a11d682624\")\n      sub(shl(0xa0, 0x01), 0x01)\n        /* \"ToyMoriesHold2Earn.sol\":3470:3491  nftCollection.ownerOf */\n      and\n      0x6352211e\n        /* \"ToyMoriesHold2Earn.sol\":3492:3499  tokenId */\n      dup5\n        /* \"ToyMoriesHold2Earn.sol\":3470:3500  nftCollection.ownerOf(tokenId) */\n      mload(0x40)\n      dup3\n      0xffffffff\n      and\n      0xe0\n      shl\n      dup2\n      mstore\n      0x04\n      add\n      tag_81\n      swap2\n        /* \"#utility.yul\":965:990   */\n      dup2\n      mstore\n        /* \"#utility.yul\":953:955   */\n      0x20\n        /* \"#utility.yul\":938:956   */\n      add\n      swap1\n        /* \"#utility.yul\":819:996   */\n      jump\n        /* \"ToyMoriesHold2Earn.sol\":3470:3500  nftCollection.ownerOf(tokenId) */\n    tag_81:\n      0x20\n      mload(0x40)\n      dup1\n      dup4\n      sub\n      dup2\n      dup7\n      gas\n      staticcall\n      iszero\n      dup1\n      iszero\n      tag_83\n      jumpi\n      returndatasize\n      0x00\n      dup1\n      returndatacopy\n      revert(0x00, returndatasize)\n    tag_83:\n      pop\n      pop\n      pop\n      pop\n      mload(0x40)\n      returndatasize\n      not(0x1f)\n      0x1f\n      dup3\n      add\n      and\n      dup3\n      add\n      dup1\n      0x40\n      mstore\n      pop\n      dup2\n      add\n      swap1\n      tag_84\n      swap2\n      swap1\n      tag_58\n      jump\t// in\n    tag_84:\n      sub(shl(0xa0, 0x01), 0x01)\n        /* \"ToyMoriesHold2Earn.sol\":3470:3514  nftCollection.ownerOf(tokenId) == msg.sender */\n      and\n      eq\n        /* \"ToyMoriesHold2Earn.sol\":3462:3561  require(nftCollection.ownerOf(tokenId) == msg.sender,... */\n      tag_85\n      jumpi\n      mload(0x40)\n      shl(0xe5, 0x461bcd)\n      dup2\n      mstore\n        /* \"#utility.yul\":2361:2363   */\n      0x20\n        /* \"ToyMoriesHold2Earn.sol\":3462:3561  require(nftCollection.ownerOf(tokenId) == msg.sender,... */\n      0x04\n      dup3\n      add\n        /* \"#utility.yul\":2343:2364   */\n      mstore\n        /* \"#utility.yul\":2400:2402   */\n      0x19\n        /* \"#utility.yul\":2380:2398   */\n      0x24\n      dup3\n      add\n        /* \"#utility.yul\":2373:2403   */\n      mstore\n        /* \"#utility.yul\":2439:2466   */\n      0x596f7520646f6e2774206f776e207468697320746f6b656e2100000000000000\n        /* \"#utility.yul\":2419:2437   */\n      0x44\n      dup3\n      add\n        /* \"#utility.yul\":2412:2467   */\n      mstore\n        /* \"#utility.yul\":2484:2502   */\n      0x64\n      add\n        /* \"ToyMoriesHold2Earn.sol\":3462:3561  require(nftCollection.ownerOf(tokenId) == msg.sender,... */\n      tag_60\n        /* \"#utility.yul\":2159:2508   */\n      jump\n        /* \"ToyMoriesHold2Earn.sol\":3462:3561  require(nftCollection.ownerOf(tokenId) == msg.sender,... */\n    tag_85:\n        /* \"ToyMoriesHold2Earn.sol\":3576:3591  uint256 rewards */\n      0x00\n        /* \"ToyMoriesHold2Earn.sol\":3594:3619  calculateRewards(tokenId) */\n      tag_87\n        /* \"ToyMoriesHold2Earn.sol\":3611:3618  tokenId */\n      dup4\n        /* \"ToyMoriesHold2Earn.sol\":3594:3610  calculateRewards */\n      tag_63\n        /* \"ToyMoriesHold2Earn.sol\":3594:3619  calculateRewards(tokenId) */\n      jump\t// in\n    tag_87:\n        /* \"ToyMoriesHold2Earn.sol\":3576:3619  uint256 rewards = calculateRewards(tokenId) */\n      swap1\n      pop\n        /* \"ToyMoriesHold2Earn.sol\":3652:3653  0 */\n      0x00\n        /* \"ToyMoriesHold2Earn.sol\":3642:3649  rewards */\n      dup2\n        /* \"ToyMoriesHold2Earn.sol\":3642:3653  rewards > 0 */\n      gt\n        /* \"ToyMoriesHold2Earn.sol\":3634:3686  require(rewards > 0, \"You have no rewards to claim\") */\n      tag_88\n      jumpi\n      mload(0x40)\n      shl(0xe5, 0x461bcd)\n      dup2\n      mstore\n        /* \"#utility.yul\":2715:2717   */\n      0x20\n        /* \"ToyMoriesHold2Earn.sol\":3634:3686  require(rewards > 0, \"You have no rewards to claim\") */\n      0x04\n      dup3\n      add\n        /* \"#utility.yul\":2697:2718   */\n      mstore\n        /* \"#utility.yul\":2754:2756   */\n      0x1c\n        /* \"#utility.yul\":2734:2752   */\n      0x24\n      dup3\n      add\n        /* \"#utility.yul\":2727:2757   */\n      mstore\n        /* \"#utility.yul\":2793:2823   */\n      0x596f752068617665206e6f207265776172647320746f20636c61696d00000000\n        /* \"#utility.yul\":2773:2791   */\n      0x44\n      dup3\n      add\n        /* \"#utility.yul\":2766:2824   */\n      mstore\n        /* \"#utility.yul\":2841:2859   */\n      0x64\n      add\n        /* \"ToyMoriesHold2Earn.sol\":3634:3686  require(rewards > 0, \"You have no rewards to claim\") */\n      tag_60\n        /* \"#utility.yul\":2513:2865   */\n      jump\n        /* \"ToyMoriesHold2Earn.sol\":3634:3686  require(rewards > 0, \"You have no rewards to claim\") */\n    tag_88:\n        /* \"ToyMoriesHold2Earn.sol\":3701:3716  tokens[tokenId] */\n      0x00\n      dup4\n      dup2\n      mstore\n        /* \"ToyMoriesHold2Earn.sol\":3701:3707  tokens */\n      0x05\n        /* \"ToyMoriesHold2Earn.sol\":3701:3716  tokens[tokenId] */\n      0x20\n      mstore\n      0x40\n      swap1\n      keccak256\n        /* \"ToyMoriesHold2Earn.sol\":3736:3751  block.timestamp */\n      timestamp\n        /* \"ToyMoriesHold2Earn.sol\":3701:3751  tokens[tokenId].timeOfLastUpdate = block.timestamp */\n      swap1\n      sstore\n        /* \"ToyMoriesHold2Earn.sol\":3766:3812  rewardsToken.safeTransfer(msg.sender, rewards) */\n      tag_90\n      sub(shl(0xa0, 0x01), 0x01)\n        /* \"ToyMoriesHold2Earn.sol\":3766:3778  rewardsToken */\n      immutable(\"0x5c4c6aa067b6f8e6cb38e6ab843832a94d1712d661a04d73c517d6a1931a9e5d\")\n        /* \"ToyMoriesHold2Earn.sol\":3766:3791  rewardsToken.safeTransfer */\n      and\n        /* \"ToyMoriesHold2Earn.sol\":3792:3802  msg.sender */\n      caller\n        /* \"ToyMoriesHold2Earn.sol\":3804:3811  rewards */\n      dup4\n        /* \"ToyMoriesHold2Earn.sol\":3766:3791  rewardsToken.safeTransfer */\n      tag_68\n        /* \"ToyMoriesHold2Earn.sol\":3766:3812  rewardsToken.safeTransfer(msg.sender, rewards) */\n      jump\t// in\n    tag_90:\n      pop\n        /* \"ToyMoriesHold2Earn.sol\":3409:3412  i++ */\n      dup1\n      tag_91\n      dup2\n      tag_92\n      jump\t// in\n    tag_91:\n      swap2\n      pop\n      pop\n        /* \"ToyMoriesHold2Earn.sol\":3367:3824  for (uint256 i = 0; i < _tokenIds.length; i++) {... */\n      jump(tag_75)\n    tag_76:\n      pop\n        /* \"ToyMoriesHold2Earn.sol\":3288:3831  {... */\n      pop\n        /* \"ToyMoriesHold2Earn.sol\":3222:3831  function batchClaimRewards(uint256[] calldata _tokenIds) external {... */\n      pop\n      pop\n      jump\t// out\n        /* \"ToyMoriesHold2Earn.sol\":3890:4062  function availableRewards(uint256 _tokenId) public view returns (uint256) {... */\n    tag_33:\n        /* \"ToyMoriesHold2Earn.sol\":3955:3962  uint256 */\n      0x00\n        /* \"ToyMoriesHold2Earn.sol\":3975:3990  uint256 rewards */\n      dup1\n        /* \"ToyMoriesHold2Earn.sol\":3993:4019  calculateRewards(_tokenId) */\n      tag_94\n        /* \"ToyMoriesHold2Earn.sol\":4010:4018  _tokenId */\n      dup4\n        /* \"ToyMoriesHold2Earn.sol\":3993:4009  calculateRewards */\n      tag_63\n        /* \"ToyMoriesHold2Earn.sol\":3993:4019  calculateRewards(_tokenId) */\n      jump\t// in\n    tag_94:\n        /* \"ToyMoriesHold2Earn.sol\":3975:4019  uint256 rewards = calculateRewards(_tokenId) */\n      swap1\n      pop\n        /* \"ToyMoriesHold2Earn.sol\":4037:4054  rewards / 1 ether */\n      tag_95\n        /* \"ToyMoriesHold2Earn.sol\":4047:4054  1 ether */\n      0x0de0b6b3a7640000\n        /* \"ToyMoriesHold2Earn.sol\":3975:4019  uint256 rewards = calculateRewards(_tokenId) */\n      dup3\n        /* \"ToyMoriesHold2Earn.sol\":4037:4054  rewards / 1 ether */\n      tag_96\n      jump\t// in\n    tag_95:\n        /* \"ToyMoriesHold2Earn.sol\":4030:4054  return rewards / 1 ether */\n      swap4\n        /* \"ToyMoriesHold2Earn.sol\":3890:4062  function availableRewards(uint256 _tokenId) public view returns (uint256) {... */\n      swap3\n      pop\n      pop\n      pop\n      jump\t// out\n        /* \"ToyMoriesHold2Earn.sol\":2257:2365  function setInitTime(uint256 _initTimestamp) public onlyOwner() {... */\n    tag_41:\n        /* \"ToyMoriesHold2Earn.sol\":1999:2004  owner */\n      and(sub(shl(0xa0, 0x01), 0x01), sload(0x01))\n        /* \"ToyMoriesHold2Earn.sol\":1985:1995  msg.sender */\n      caller\n        /* \"ToyMoriesHold2Earn.sol\":1985:2004  msg.sender == owner */\n      eq\n        /* \"ToyMoriesHold2Earn.sol\":1977:2022  require(msg.sender == owner, \"Not the owner\") */\n      tag_98\n      jumpi\n      mload(0x40)\n      shl(0xe5, 0x461bcd)\n      dup2\n      mstore\n        /* \"#utility.yul\":3072:3074   */\n      0x20\n        /* \"ToyMoriesHold2Earn.sol\":1977:2022  require(msg.sender == owner, \"Not the owner\") */\n      0x04\n      dup3\n      add\n        /* \"#utility.yul\":3054:3075   */\n      mstore\n        /* \"#utility.yul\":3111:3113   */\n      0x0d\n        /* \"#utility.yul\":3091:3109   */\n      0x24\n      dup3\n      add\n        /* \"#utility.yul\":3084:3114   */\n      mstore\n      shl(0x99, 0x2737ba103a34329037bbb732b9)\n        /* \"#utility.yul\":3130:3148   */\n      0x44\n      dup3\n      add\n        /* \"#utility.yul\":3123:3166   */\n      mstore\n        /* \"#utility.yul\":3183:3201   */\n      0x64\n      add\n        /* \"ToyMoriesHold2Earn.sol\":1977:2022  require(msg.sender == owner, \"Not the owner\") */\n      tag_60\n        /* \"#utility.yul\":2870:3207   */\n      jump\n        /* \"ToyMoriesHold2Earn.sol\":1977:2022  require(msg.sender == owner, \"Not the owner\") */\n    tag_98:\n        /* \"ToyMoriesHold2Earn.sol\":2332:2340  InitTime */\n      0x02\n        /* \"ToyMoriesHold2Earn.sol\":2332:2357  InitTime = _initTimestamp */\n      sstore\n        /* \"ToyMoriesHold2Earn.sol\":2257:2365  function setInitTime(uint256 _initTimestamp) public onlyOwner() {... */\n      jump\t// out\n        /* \"ToyMoriesHold2Earn.sol\":2094:2189  function setNewOwner(address _newOwner) public onlyOwner() {... */\n    tag_52:\n        /* \"ToyMoriesHold2Earn.sol\":1999:2004  owner */\n      and(sub(shl(0xa0, 0x01), 0x01), sload(0x01))\n        /* \"ToyMoriesHold2Earn.sol\":1985:1995  msg.sender */\n      caller\n        /* \"ToyMoriesHold2Earn.sol\":1985:2004  msg.sender == owner */\n      eq\n        /* \"ToyMoriesHold2Earn.sol\":1977:2022  require(msg.sender == owner, \"Not the owner\") */\n      tag_102\n      jumpi\n      mload(0x40)\n      shl(0xe5, 0x461bcd)\n      dup2\n      mstore\n        /* \"#utility.yul\":3072:3074   */\n      0x20\n        /* \"ToyMoriesHold2Earn.sol\":1977:2022  require(msg.sender == owner, \"Not the owner\") */\n      0x04\n      dup3\n      add\n        /* \"#utility.yul\":3054:3075   */\n      mstore\n        /* \"#utility.yul\":3111:3113   */\n      0x0d\n        /* \"#utility.yul\":3091:3109   */\n      0x24\n      dup3\n      add\n        /* \"#utility.yul\":3084:3114   */\n      mstore\n      shl(0x99, 0x2737ba103a34329037bbb732b9)\n        /* \"#utility.yul\":3130:3148   */\n      0x44\n      dup3\n      add\n        /* \"#utility.yul\":3123:3166   */\n      mstore\n        /* \"#utility.yul\":3183:3201   */\n      0x64\n      add\n        /* \"ToyMoriesHold2Earn.sol\":1977:2022  require(msg.sender == owner, \"Not the owner\") */\n      tag_60\n        /* \"#utility.yul\":2870:3207   */\n      jump\n        /* \"ToyMoriesHold2Earn.sol\":1977:2022  require(msg.sender == owner, \"Not the owner\") */\n    tag_102:\n        /* \"ToyMoriesHold2Earn.sol\":2164:2169  owner */\n      0x01\n        /* \"ToyMoriesHold2Earn.sol\":2164:2181  owner = _newOwner */\n      dup1\n      sload\n      0xffffffffffffffffffffffff0000000000000000000000000000000000000000\n      and\n      sub(shl(0xa0, 0x01), 0x01)\n      swap3\n      swap1\n      swap3\n      and\n      swap2\n      swap1\n      swap2\n      or\n      swap1\n      sstore\n        /* \"ToyMoriesHold2Earn.sol\":2094:2189  function setNewOwner(address _newOwner) public onlyOwner() {... */\n      jump\t// out\n        /* \"ToyMoriesHold2Earn.sol\":4308:5181  function calculateRewards(uint256 _tokenId)... */\n    tag_63:\n        /* \"ToyMoriesHold2Earn.sol\":4402:4418  uint256 _rewards */\n      0x00\n        /* \"ToyMoriesHold2Earn.sol\":4440:4456  tokens[_tokenId] */\n      dup2\n      dup2\n      mstore\n        /* \"ToyMoriesHold2Earn.sol\":4440:4446  tokens */\n      0x05\n        /* \"ToyMoriesHold2Earn.sol\":4440:4456  tokens[_tokenId] */\n      0x20\n      mstore\n      0x40\n      dup2\n      keccak256\n        /* \"ToyMoriesHold2Earn.sol\":4440:4473  tokens[_tokenId].timeOfLastUpdate */\n      sload\n        /* \"ToyMoriesHold2Earn.sol\":4440:4478  tokens[_tokenId].timeOfLastUpdate == 0 */\n      iszero\n        /* \"ToyMoriesHold2Earn.sol\":4440:4509  tokens[_tokenId].timeOfLastUpdate == 0 && block.timestamp <= Deadline */\n      dup1\n      iszero\n      tag_106\n      jumpi\n      pop\n        /* \"ToyMoriesHold2Earn.sol\":4501:4509  Deadline */\n      sload(0x03)\n        /* \"ToyMoriesHold2Earn.sol\":4482:4497  block.timestamp */\n      timestamp\n        /* \"ToyMoriesHold2Earn.sol\":4482:4509  block.timestamp <= Deadline */\n      gt\n      iszero\n        /* \"ToyMoriesHold2Earn.sol\":4440:4509  tokens[_tokenId].timeOfLastUpdate == 0 && block.timestamp <= Deadline */\n    tag_106:\n        /* \"ToyMoriesHold2Earn.sol\":4436:5174  if (tokens[_tokenId].timeOfLastUpdate == 0 && block.timestamp <= Deadline) {... */\n      iszero\n      tag_107\n      jumpi\n        /* \"ToyMoriesHold2Earn.sol\":4584:4586  60 */\n      0x3c\n        /* \"ToyMoriesHold2Earn.sol\":4567:4580  rewardsPerDay */\n      sload(0x04)\n        /* \"ToyMoriesHold2Earn.sol\":4555:4563  InitTime */\n      sload(0x02)\n        /* \"ToyMoriesHold2Earn.sol\":4537:4552  block.timestamp */\n      timestamp\n        /* \"ToyMoriesHold2Earn.sol\":4537:4563  block.timestamp - InitTime */\n      tag_108\n      swap2\n      swap1\n      tag_109\n      jump\t// in\n    tag_108:\n        /* \"ToyMoriesHold2Earn.sol\":4536:4580  (block.timestamp - InitTime) * rewardsPerDay */\n      tag_110\n      swap2\n      swap1\n      tag_111\n      jump\t// in\n    tag_110:\n        /* \"ToyMoriesHold2Earn.sol\":4535:4586  ((block.timestamp - InitTime) * rewardsPerDay) / 60 */\n      tag_112\n      swap2\n      swap1\n      tag_96\n      jump\t// in\n    tag_112:\n        /* \"ToyMoriesHold2Earn.sol\":4527:4587  return (((block.timestamp - InitTime) * rewardsPerDay) / 60) */\n      swap3\n        /* \"ToyMoriesHold2Earn.sol\":4308:5181  function calculateRewards(uint256 _tokenId)... */\n      swap2\n      pop\n      pop\n      jump\t// out\n        /* \"ToyMoriesHold2Earn.sol\":4436:5174  if (tokens[_tokenId].timeOfLastUpdate == 0 && block.timestamp <= Deadline) {... */\n    tag_107:\n        /* \"ToyMoriesHold2Earn.sol\":4609:4625  tokens[_tokenId] */\n      0x00\n      dup3\n      dup2\n      mstore\n        /* \"ToyMoriesHold2Earn.sol\":4609:4615  tokens */\n      0x05\n        /* \"ToyMoriesHold2Earn.sol\":4609:4625  tokens[_tokenId] */\n      0x20\n      mstore\n      0x40\n      swap1\n      keccak256\n        /* \"ToyMoriesHold2Earn.sol\":4609:4642  tokens[_tokenId].timeOfLastUpdate */\n      sload\n        /* \"ToyMoriesHold2Earn.sol\":4609:4647  tokens[_tokenId].timeOfLastUpdate == 0 */\n      iszero\n        /* \"ToyMoriesHold2Earn.sol\":4609:4677  tokens[_tokenId].timeOfLastUpdate == 0 && block.timestamp > Deadline */\n      dup1\n      iszero\n      tag_114\n      jumpi\n      pop\n        /* \"ToyMoriesHold2Earn.sol\":4669:4677  Deadline */\n      sload(0x03)\n        /* \"ToyMoriesHold2Earn.sol\":4651:4666  block.timestamp */\n      timestamp\n        /* \"ToyMoriesHold2Earn.sol\":4651:4677  block.timestamp > Deadline */\n      gt\n        /* \"ToyMoriesHold2Earn.sol\":4609:4677  tokens[_tokenId].timeOfLastUpdate == 0 && block.timestamp > Deadline */\n    tag_114:\n        /* \"ToyMoriesHold2Earn.sol\":4605:5174  if (tokens[_tokenId].timeOfLastUpdate == 0 && block.timestamp > Deadline){... */\n      iszero\n      tag_115\n      jumpi\n        /* \"ToyMoriesHold2Earn.sol\":4742:4744  60 */\n      0x3c\n        /* \"ToyMoriesHold2Earn.sol\":4725:4738  rewardsPerDay */\n      sload(0x04)\n        /* \"ToyMoriesHold2Earn.sol\":4713:4721  InitTime */\n      sload(0x02)\n        /* \"ToyMoriesHold2Earn.sol\":4702:4710  Deadline */\n      sload(0x03)\n        /* \"ToyMoriesHold2Earn.sol\":4702:4721  Deadline - InitTime */\n      tag_108\n      swap2\n      swap1\n      tag_109\n      jump\t// in\n        /* \"ToyMoriesHold2Earn.sol\":4605:5174  if (tokens[_tokenId].timeOfLastUpdate == 0 && block.timestamp > Deadline){... */\n    tag_115:\n        /* \"ToyMoriesHold2Earn.sol\":4785:4793  Deadline */\n      sload(0x03)\n        /* \"ToyMoriesHold2Earn.sol\":4767:4782  block.timestamp */\n      timestamp\n        /* \"ToyMoriesHold2Earn.sol\":4767:4793  block.timestamp > Deadline */\n      gt\n        /* \"ToyMoriesHold2Earn.sol\":4767:4834  block.timestamp > Deadline && tokens[_tokenId].timeOfLastUpdate > 0 */\n      dup1\n      iszero\n      tag_120\n      jumpi\n      pop\n        /* \"ToyMoriesHold2Earn.sol\":4833:4834  0 */\n      0x00\n        /* \"ToyMoriesHold2Earn.sol\":4797:4813  tokens[_tokenId] */\n      dup3\n      dup2\n      mstore\n        /* \"ToyMoriesHold2Earn.sol\":4797:4803  tokens */\n      0x05\n        /* \"ToyMoriesHold2Earn.sol\":4797:4813  tokens[_tokenId] */\n      0x20\n      mstore\n      0x40\n      swap1\n      keccak256\n        /* \"ToyMoriesHold2Earn.sol\":4797:4830  tokens[_tokenId].timeOfLastUpdate */\n      sload\n        /* \"ToyMoriesHold2Earn.sol\":4797:4834  tokens[_tokenId].timeOfLastUpdate > 0 */\n      iszero\n      iszero\n        /* \"ToyMoriesHold2Earn.sol\":4767:4834  block.timestamp > Deadline && tokens[_tokenId].timeOfLastUpdate > 0 */\n    tag_120:\n        /* \"ToyMoriesHold2Earn.sol\":4763:5174  if (block.timestamp > Deadline && tokens[_tokenId].timeOfLastUpdate > 0){... */\n      iszero\n      tag_121\n      jumpi\n        /* \"ToyMoriesHold2Earn.sol\":4907:4920  rewardsPerDay */\n      sload(0x04)\n        /* \"ToyMoriesHold2Earn.sol\":4870:4886  tokens[_tokenId] */\n      0x00\n      dup4\n      dup2\n      mstore\n        /* \"ToyMoriesHold2Earn.sol\":4870:4876  tokens */\n      0x05\n        /* \"ToyMoriesHold2Earn.sol\":4870:4886  tokens[_tokenId] */\n      0x20\n      mstore\n      0x40\n      swap1\n      keccak256\n        /* \"ToyMoriesHold2Earn.sol\":4870:4903  tokens[_tokenId].timeOfLastUpdate */\n      sload\n        /* \"ToyMoriesHold2Earn.sol\":4859:4867  Deadline */\n      sload(0x03)\n        /* \"ToyMoriesHold2Earn.sol\":4924:4926  60 */\n      0x3c\n      swap3\n        /* \"ToyMoriesHold2Earn.sol\":4907:4920  rewardsPerDay */\n      swap2\n        /* \"ToyMoriesHold2Earn.sol\":4859:4903  Deadline - tokens[_tokenId].timeOfLastUpdate */\n      tag_108\n      swap2\n      tag_109\n      jump\t// in\n        /* \"ToyMoriesHold2Earn.sol\":4763:5174  if (block.timestamp > Deadline && tokens[_tokenId].timeOfLastUpdate > 0){... */\n    tag_121:\n        /* \"ToyMoriesHold2Earn.sol\":4967:4975  Deadline */\n      sload(0x03)\n        /* \"ToyMoriesHold2Earn.sol\":4949:4964  block.timestamp */\n      timestamp\n        /* \"ToyMoriesHold2Earn.sol\":4949:4975  block.timestamp > Deadline */\n      gt\n        /* \"ToyMoriesHold2Earn.sol\":4949:5023  block.timestamp > Deadline && tokens[_tokenId].timeOfLastUpdate > Deadline */\n      dup1\n      iszero\n      tag_126\n      jumpi\n      pop\n        /* \"ToyMoriesHold2Earn.sol\":5015:5023  Deadline */\n      sload(0x03)\n        /* \"ToyMoriesHold2Earn.sol\":4979:4995  tokens[_tokenId] */\n      0x00\n      dup4\n      dup2\n      mstore\n        /* \"ToyMoriesHold2Earn.sol\":4979:4985  tokens */\n      0x05\n        /* \"ToyMoriesHold2Earn.sol\":4979:4995  tokens[_tokenId] */\n      0x20\n      mstore\n      0x40\n      swap1\n      keccak256\n        /* \"ToyMoriesHold2Earn.sol\":4979:5012  tokens[_tokenId].timeOfLastUpdate */\n      sload\n        /* \"ToyMoriesHold2Earn.sol\":4979:5023  tokens[_tokenId].timeOfLastUpdate > Deadline */\n      gt\n        /* \"ToyMoriesHold2Earn.sol\":4949:5023  block.timestamp > Deadline && tokens[_tokenId].timeOfLastUpdate > Deadline */\n    tag_126:\n        /* \"ToyMoriesHold2Earn.sol\":4945:5174  if (block.timestamp > Deadline && tokens[_tokenId].timeOfLastUpdate > Deadline){... */\n      iszero\n      tag_127\n      jumpi\n      pop\n        /* \"ToyMoriesHold2Earn.sol\":5045:5046  0 */\n      0x00\n      swap2\n        /* \"ToyMoriesHold2Earn.sol\":4308:5181  function calculateRewards(uint256 _tokenId)... */\n      swap1\n      pop\n      jump\t// out\n        /* \"ToyMoriesHold2Earn.sol\":4945:5174  if (block.timestamp > Deadline && tokens[_tokenId].timeOfLastUpdate > Deadline){... */\n    tag_127:\n        /* \"ToyMoriesHold2Earn.sol\":5142:5155  rewardsPerDay */\n      sload(0x04)\n        /* \"ToyMoriesHold2Earn.sol\":5105:5121  tokens[_tokenId] */\n      0x00\n      dup4\n      dup2\n      mstore\n        /* \"ToyMoriesHold2Earn.sol\":5105:5111  tokens */\n      0x05\n        /* \"ToyMoriesHold2Earn.sol\":5105:5121  tokens[_tokenId] */\n      0x20\n      mstore\n      0x40\n      swap1\n      keccak256\n        /* \"ToyMoriesHold2Earn.sol\":5105:5138  tokens[_tokenId].timeOfLastUpdate */\n      sload\n        /* \"ToyMoriesHold2Earn.sol\":5159:5161  60 */\n      0x3c\n      swap2\n        /* \"ToyMoriesHold2Earn.sol\":5142:5155  rewardsPerDay */\n      swap1\n        /* \"ToyMoriesHold2Earn.sol\":5087:5138  block.timestamp - tokens[_tokenId].timeOfLastUpdate */\n      tag_108\n      swap1\n        /* \"ToyMoriesHold2Earn.sol\":5087:5102  block.timestamp */\n      timestamp\n        /* \"ToyMoriesHold2Earn.sol\":5087:5138  block.timestamp - tokens[_tokenId].timeOfLastUpdate */\n      tag_109\n      jump\t// in\n        /* \"@openzeppelin/contracts/token/ERC20/utils/SafeERC20.sol\":763:968   */\n    tag_68:\n        /* \"@openzeppelin/contracts/token/ERC20/utils/SafeERC20.sol\":902:960   */\n      0x40\n      dup1\n      mload\n      sub(shl(0xa0, 0x01), 0x01)\n        /* \"#utility.yul\":4333:4388   */\n      dup5\n      and\n        /* \"@openzeppelin/contracts/token/ERC20/utils/SafeERC20.sol\":902:960   */\n      0x24\n      dup3\n      add\n        /* \"#utility.yul\":4315:4389   */\n      mstore\n        /* \"#utility.yul\":4405:4423   */\n      0x44\n      dup1\n      dup3\n      add\n        /* \"#utility.yul\":4398:4432   */\n      dup5\n      swap1\n      mstore\n        /* \"@openzeppelin/contracts/token/ERC20/utils/SafeERC20.sol\":902:960   */\n      dup3\n      mload\n      dup1\n      dup4\n      sub\n      swap1\n      swap2\n      add\n      dup2\n      mstore\n        /* \"#utility.yul\":4288:4306   */\n      0x64\n      swap1\n      swap2\n      add\n        /* \"@openzeppelin/contracts/token/ERC20/utils/SafeERC20.sol\":902:960   */\n      swap1\n      swap2\n      mstore\n      0x20\n      dup2\n      add\n      dup1\n      mload\n      0xffffffffffffffffffffffffffffffffffffffffffffffffffffffff\n      and\n      shl(0xe0, 0xa9059cbb)\n      or\n      swap1\n      mstore\n        /* \"@openzeppelin/contracts/token/ERC20/utils/SafeERC20.sol\":875:961   */\n      tag_133\n      swap1\n        /* \"@openzeppelin/contracts/token/ERC20/utils/SafeERC20.sol\":895:900   */\n      dup5\n      swap1\n        /* \"@openzeppelin/contracts/token/ERC20/utils/SafeERC20.sol\":875:894   */\n      tag_136\n        /* \"@openzeppelin/contracts/token/ERC20/utils/SafeERC20.sol\":875:961   */\n      jump\t// in\n    tag_133:\n        /* \"@openzeppelin/contracts/token/ERC20/utils/SafeERC20.sol\":763:968   */\n      pop\n      pop\n      pop\n      jump\t// out\n        /* \"@openzeppelin/contracts/token/ERC20/utils/SafeERC20.sol\":3747:4453   */\n    tag_136:\n        /* \"@openzeppelin/contracts/token/ERC20/utils/SafeERC20.sol\":4166:4189   */\n      0x00\n        /* \"@openzeppelin/contracts/token/ERC20/utils/SafeERC20.sol\":4192:4261   */\n      tag_138\n        /* \"@openzeppelin/contracts/token/ERC20/utils/SafeERC20.sol\":4220:4224   */\n      dup3\n        /* \"@openzeppelin/contracts/token/ERC20/utils/SafeERC20.sol\":4192:4261   */\n      mload(0x40)\n      dup1\n      0x40\n      add\n      0x40\n      mstore\n      dup1\n      0x20\n      dup2\n      mstore\n      0x20\n      add\n      0x5361666545524332303a206c6f772d6c6576656c2063616c6c206661696c6564\n      dup2\n      mstore\n      pop\n        /* \"@openzeppelin/contracts/token/ERC20/utils/SafeERC20.sol\":4200:4205   */\n      dup6\n      sub(shl(0xa0, 0x01), 0x01)\n        /* \"@openzeppelin/contracts/token/ERC20/utils/SafeERC20.sol\":4192:4219   */\n      and\n      tag_139\n      swap1\n        /* \"@openzeppelin/contracts/token/ERC20/utils/SafeERC20.sol\":4192:4261   */\n      swap3\n      swap2\n      swap1\n      0xffffffff\n      and\n      jump\t// in\n    tag_138:\n        /* \"@openzeppelin/contracts/token/ERC20/utils/SafeERC20.sol\":4275:4292   */\n      dup1\n      mload\n        /* \"@openzeppelin/contracts/token/ERC20/utils/SafeERC20.sol\":4166:4261   */\n      swap1\n      swap2\n      pop\n        /* \"@openzeppelin/contracts/token/ERC20/utils/SafeERC20.sol\":4275:4296   */\n      iszero\n        /* \"@openzeppelin/contracts/token/ERC20/utils/SafeERC20.sol\":4271:4447   */\n      tag_133\n      jumpi\n        /* \"@openzeppelin/contracts/token/ERC20/utils/SafeERC20.sol\":4370:4380   */\n      dup1\n        /* \"@openzeppelin/contracts/token/ERC20/utils/SafeERC20.sol\":4359:4389   */\n      dup1\n      0x20\n      add\n      swap1\n      mload\n      dup2\n      add\n      swap1\n      tag_141\n      swap2\n      swap1\n      tag_142\n      jump\t// in\n    tag_141:\n        /* \"@openzeppelin/contracts/token/ERC20/utils/SafeERC20.sol\":4351:4436   */\n      tag_133\n      jumpi\n      mload(0x40)\n      shl(0xe5, 0x461bcd)\n      dup2\n      mstore\n        /* \"#utility.yul\":4927:4929   */\n      0x20\n        /* \"@openzeppelin/contracts/token/ERC20/utils/SafeERC20.sol\":4351:4436   */\n      0x04\n      dup3\n      add\n        /* \"#utility.yul\":4909:4930   */\n      mstore\n        /* \"#utility.yul\":4966:4968   */\n      0x2a\n        /* \"#utility.yul\":4946:4964   */\n      0x24\n      dup3\n      add\n        /* \"#utility.yul\":4939:4969   */\n      mstore\n        /* \"#utility.yul\":5005:5039   */\n      0x5361666545524332303a204552433230206f7065726174696f6e20646964206e\n        /* \"#utility.yul\":4985:5003   */\n      0x44\n      dup3\n      add\n        /* \"#utility.yul\":4978:5040   */\n      mstore\n        /* \"#utility.yul\":5076:5088   */\n      0x6f74207375636365656400000000000000000000000000000000000000000000\n        /* \"#utility.yul\":5056:5074   */\n      0x64\n      dup3\n      add\n        /* \"#utility.yul\":5049:5089   */\n      mstore\n        /* \"#utility.yul\":5106:5125   */\n      0x84\n      add\n        /* \"@openzeppelin/contracts/token/ERC20/utils/SafeERC20.sol\":4351:4436   */\n      tag_60\n        /* \"#utility.yul\":4725:5131   */\n      jump\n        /* \"@openzeppelin/contracts/utils/Address.sol\":3861:4084   */\n    tag_139:\n        /* \"@openzeppelin/contracts/utils/Address.sol\":3994:4006   */\n      0x60\n        /* \"@openzeppelin/contracts/utils/Address.sol\":4025:4077   */\n      tag_147\n        /* \"@openzeppelin/contracts/utils/Address.sol\":4047:4053   */\n      dup5\n        /* \"@openzeppelin/contracts/utils/Address.sol\":4055:4059   */\n      dup5\n        /* \"@openzeppelin/contracts/utils/Address.sol\":4061:4062   */\n      0x00\n        /* \"@openzeppelin/contracts/utils/Address.sol\":4064:4076   */\n      dup6\n        /* \"@openzeppelin/contracts/utils/Address.sol\":4025:4046   */\n      tag_148\n        /* \"@openzeppelin/contracts/utils/Address.sol\":4025:4077   */\n      jump\t// in\n    tag_147:\n        /* \"@openzeppelin/contracts/utils/Address.sol\":4018:4077   */\n      swap5\n        /* \"@openzeppelin/contracts/utils/Address.sol\":3861:4084   */\n      swap4\n      pop\n      pop\n      pop\n      pop\n      jump\t// out\n        /* \"@openzeppelin/contracts/utils/Address.sol\":4948:5447   */\n    tag_148:\n        /* \"@openzeppelin/contracts/utils/Address.sol\":5113:5125   */\n      0x60\n        /* \"@openzeppelin/contracts/utils/Address.sol\":5170:5175   */\n      dup3\n        /* \"@openzeppelin/contracts/utils/Address.sol\":5145:5166   */\n      selfbalance\n        /* \"@openzeppelin/contracts/utils/Address.sol\":5145:5175   */\n      lt\n      iszero\n        /* \"@openzeppelin/contracts/utils/Address.sol\":5137:5218   */\n      tag_150\n      jumpi\n      mload(0x40)\n      shl(0xe5, 0x461bcd)\n      dup2\n      mstore\n        /* \"#utility.yul\":5338:5340   */\n      0x20\n        /* \"@openzeppelin/contracts/utils/Address.sol\":5137:5218   */\n      0x04\n      dup3\n      add\n        /* \"#utility.yul\":5320:5341   */\n      mstore\n        /* \"#utility.yul\":5377:5379   */\n      0x26\n        /* \"#utility.yul\":5357:5375   */\n      0x24\n      dup3\n      add\n        /* \"#utility.yul\":5350:5380   */\n      mstore\n        /* \"#utility.yul\":5416:5450   */\n      0x416464726573733a20696e73756666696369656e742062616c616e636520666f\n        /* \"#utility.yul\":5396:5414   */\n      0x44\n      dup3\n      add\n        /* \"#utility.yul\":5389:5451   */\n      mstore\n        /* \"#utility.yul\":5487:5495   */\n      0x722063616c6c0000000000000000000000000000000000000000000000000000\n        /* \"#utility.yul\":5467:5485   */\n      0x64\n      dup3\n      add\n        /* \"#utility.yul\":5460:5496   */\n      mstore\n        /* \"#utility.yul\":5513:5532   */\n      0x84\n      add\n        /* \"@openzeppelin/contracts/utils/Address.sol\":5137:5218   */\n      tag_60\n        /* \"#utility.yul\":5136:5538   */\n      jump\n        /* \"@openzeppelin/contracts/utils/Address.sol\":5137:5218   */\n    tag_150:\n      sub(shl(0xa0, 0x01), 0x01)\n        /* \"@openzeppelin/contracts/utils/Address.sol\":1465:1484   */\n      dup6\n      and\n      extcodesize\n        /* \"@openzeppelin/contracts/utils/Address.sol\":5228:5288   */\n      tag_155\n      jumpi\n      mload(0x40)\n      shl(0xe5, 0x461bcd)\n      dup2\n      mstore\n        /* \"#utility.yul\":5745:5747   */\n      0x20\n        /* \"@openzeppelin/contracts/utils/Address.sol\":5228:5288   */\n      0x04\n      dup3\n      add\n        /* \"#utility.yul\":5727:5748   */\n      mstore\n        /* \"#utility.yul\":5784:5786   */\n      0x1d\n        /* \"#utility.yul\":5764:5782   */\n      0x24\n      dup3\n      add\n        /* \"#utility.yul\":5757:5787   */\n      mstore\n        /* \"#utility.yul\":5823:5854   */\n      0x416464726573733a2063616c6c20746f206e6f6e2d636f6e7472616374000000\n        /* \"#utility.yul\":5803:5821   */\n      0x44\n      dup3\n      add\n        /* \"#utility.yul\":5796:5855   */\n      mstore\n        /* \"#utility.yul\":5872:5890   */\n      0x64\n      add\n        /* \"@openzeppelin/contracts/utils/Address.sol\":5228:5288   */\n      tag_60\n        /* \"#utility.yul\":5543:5896   */\n      jump\n        /* \"@openzeppelin/contracts/utils/Address.sol\":5228:5288   */\n    tag_155:\n        /* \"@openzeppelin/contracts/utils/Address.sol\":5300:5312   */\n      0x00\n        /* \"@openzeppelin/contracts/utils/Address.sol\":5314:5337   */\n      dup1\n        /* \"@openzeppelin/contracts/utils/Address.sol\":5341:5347   */\n      dup7\n      sub(shl(0xa0, 0x01), 0x01)\n        /* \"@openzeppelin/contracts/utils/Address.sol\":5341:5352   */\n      and\n        /* \"@openzeppelin/contracts/utils/Address.sol\":5360:5365   */\n      dup6\n        /* \"@openzeppelin/contracts/utils/Address.sol\":5367:5371   */\n      dup8\n        /* \"@openzeppelin/contracts/utils/Address.sol\":5341:5372   */\n      mload(0x40)\n      tag_158\n      swap2\n      swap1\n      tag_159\n      jump\t// in\n    tag_158:\n      0x00\n      mload(0x40)\n      dup1\n      dup4\n      sub\n      dup2\n      dup6\n      dup8\n      gas\n      call\n      swap3\n      pop\n      pop\n      pop\n      returndatasize\n      dup1\n      0x00\n      dup2\n      eq\n      tag_162\n      jumpi\n      mload(0x40)\n      swap2\n      pop\n      and(add(returndatasize, 0x3f), not(0x1f))\n      dup3\n      add\n      0x40\n      mstore\n      returndatasize\n      dup3\n      mstore\n      returndatasize\n      0x00\n      0x20\n      dup5\n      add\n      returndatacopy\n      jump(tag_161)\n    tag_162:\n      0x60\n      swap2\n      pop\n    tag_161:\n      pop\n        /* \"@openzeppelin/contracts/utils/Address.sol\":5299:5372   */\n      swap2\n      pop\n      swap2\n      pop\n        /* \"@openzeppelin/contracts/utils/Address.sol\":5389:5440   */\n      tag_163\n        /* \"@openzeppelin/contracts/utils/Address.sol\":5406:5413   */\n      dup3\n        /* \"@openzeppelin/contracts/utils/Address.sol\":5415:5425   */\n      dup3\n        /* \"@openzeppelin/contracts/utils/Address.sol\":5427:5439   */\n      dup7\n        /* \"@openzeppelin/contracts/utils/Address.sol\":5389:5405   */\n      tag_164\n        /* \"@openzeppelin/contracts/utils/Address.sol\":5389:5440   */\n      jump\t// in\n    tag_163:\n        /* \"@openzeppelin/contracts/utils/Address.sol\":5382:5440   */\n      swap8\n        /* \"@openzeppelin/contracts/utils/Address.sol\":4948:5447   */\n      swap7\n      pop\n      pop\n      pop\n      pop\n      pop\n      pop\n      pop\n      jump\t// out\n        /* \"@openzeppelin/contracts/utils/Address.sol\":7561:8303   */\n    tag_164:\n        /* \"@openzeppelin/contracts/utils/Address.sol\":7707:7719   */\n      0x60\n        /* \"@openzeppelin/contracts/utils/Address.sol\":7735:7742   */\n      dup4\n        /* \"@openzeppelin/contracts/utils/Address.sol\":7731:8297   */\n      iszero\n      tag_167\n      jumpi\n      pop\n        /* \"@openzeppelin/contracts/utils/Address.sol\":7765:7775   */\n      dup2\n        /* \"@openzeppelin/contracts/utils/Address.sol\":7758:7775   */\n      jump(tag_95)\n        /* \"@openzeppelin/contracts/utils/Address.sol\":7731:8297   */\n    tag_167:\n        /* \"@openzeppelin/contracts/utils/Address.sol\":7876:7893   */\n      dup3\n      mload\n        /* \"@openzeppelin/contracts/utils/Address.sol\":7876:7897   */\n      iszero\n        /* \"@openzeppelin/contracts/utils/Address.sol\":7872:8287   */\n      tag_169\n      jumpi\n        /* \"@openzeppelin/contracts/utils/Address.sol\":8120:8130   */\n      dup3\n        /* \"@openzeppelin/contracts/utils/Address.sol\":8114:8131   */\n      mload\n        /* \"@openzeppelin/contracts/utils/Address.sol\":8180:8195   */\n      dup1\n        /* \"@openzeppelin/contracts/utils/Address.sol\":8167:8177   */\n      dup5\n        /* \"@openzeppelin/contracts/utils/Address.sol\":8163:8165   */\n      0x20\n        /* \"@openzeppelin/contracts/utils/Address.sol\":8159:8178   */\n      add\n        /* \"@openzeppelin/contracts/utils/Address.sol\":8152:8196   */\n      revert\n        /* \"@openzeppelin/contracts/utils/Address.sol\":7872:8287   */\n    tag_169:\n        /* \"@openzeppelin/contracts/utils/Address.sol\":8259:8271   */\n      dup2\n        /* \"@openzeppelin/contracts/utils/Address.sol\":8252:8272   */\n      mload(0x40)\n      shl(0xe5, 0x461bcd)\n      dup2\n      mstore\n      0x04\n      add\n      tag_60\n      swap2\n      swap1\n      tag_172\n      jump\t// in\n        /* \"#utility.yul\":14:194   */\n    tag_18:\n        /* \"#utility.yul\":73:79   */\n      0x00\n        /* \"#utility.yul\":126:128   */\n      0x20\n        /* \"#utility.yul\":114:123   */\n      dup3\n        /* \"#utility.yul\":105:112   */\n      dup5\n        /* \"#utility.yul\":101:124   */\n      sub\n        /* \"#utility.yul\":97:129   */\n      slt\n        /* \"#utility.yul\":94:146   */\n      iszero\n      tag_178\n      jumpi\n        /* \"#utility.yul\":142:143   */\n      0x00\n        /* \"#utility.yul\":139:140   */\n      dup1\n        /* \"#utility.yul\":132:144   */\n      revert\n        /* \"#utility.yul\":94:146   */\n    tag_178:\n      pop\n        /* \"#utility.yul\":165:188   */\n      calldataload\n      swap2\n        /* \"#utility.yul\":14:194   */\n      swap1\n      pop\n      jump\t// out\n        /* \"#utility.yul\":199:814   */\n    tag_25:\n        /* \"#utility.yul\":285:291   */\n      0x00\n        /* \"#utility.yul\":293:299   */\n      dup1\n        /* \"#utility.yul\":346:348   */\n      0x20\n        /* \"#utility.yul\":334:343   */\n      dup4\n        /* \"#utility.yul\":325:332   */\n      dup6\n        /* \"#utility.yul\":321:344   */\n      sub\n        /* \"#utility.yul\":317:349   */\n      slt\n        /* \"#utility.yul\":314:366   */\n      iszero\n      tag_180\n      jumpi\n        /* \"#utility.yul\":362:363   */\n      0x00\n        /* \"#utility.yul\":359:360   */\n      dup1\n        /* \"#utility.yul\":352:364   */\n      revert\n        /* \"#utility.yul\":314:366   */\n    tag_180:\n        /* \"#utility.yul\":402:411   */\n      dup3\n        /* \"#utility.yul\":389:412   */\n      calldataload\n        /* \"#utility.yul\":431:449   */\n      0xffffffffffffffff\n        /* \"#utility.yul\":472:474   */\n      dup1\n        /* \"#utility.yul\":464:470   */\n      dup3\n        /* \"#utility.yul\":461:475   */\n      gt\n        /* \"#utility.yul\":458:492   */\n      iszero\n      tag_181\n      jumpi\n        /* \"#utility.yul\":488:489   */\n      0x00\n        /* \"#utility.yul\":485:486   */\n      dup1\n        /* \"#utility.yul\":478:490   */\n      revert\n        /* \"#utility.yul\":458:492   */\n    tag_181:\n        /* \"#utility.yul\":526:532   */\n      dup2\n        /* \"#utility.yul\":515:524   */\n      dup6\n        /* \"#utility.yul\":511:533   */\n      add\n        /* \"#utility.yul\":501:533   */\n      swap2\n      pop\n        /* \"#utility.yul\":571:578   */\n      dup6\n        /* \"#utility.yul\":564:568   */\n      0x1f\n        /* \"#utility.yul\":560:562   */\n      dup4\n        /* \"#utility.yul\":556:569   */\n      add\n        /* \"#utility.yul\":552:579   */\n      slt\n        /* \"#utility.yul\":542:597   */\n      tag_182\n      jumpi\n        /* \"#utility.yul\":593:594   */\n      0x00\n        /* \"#utility.yul\":590:591   */\n      dup1\n        /* \"#utility.yul\":583:595   */\n      revert\n        /* \"#utility.yul\":542:597   */\n    tag_182:\n        /* \"#utility.yul\":633:635   */\n      dup2\n        /* \"#utility.yul\":620:636   */\n      calldataload\n        /* \"#utility.yul\":659:661   */\n      dup2\n        /* \"#utility.yul\":651:657   */\n      dup2\n        /* \"#utility.yul\":648:662   */\n      gt\n        /* \"#utility.yul\":645:679   */\n      iszero\n      tag_183\n      jumpi\n        /* \"#utility.yul\":675:676   */\n      0x00\n        /* \"#utility.yul\":672:673   */\n      dup1\n        /* \"#utility.yul\":665:677   */\n      revert\n        /* \"#utility.yul\":645:679   */\n    tag_183:\n        /* \"#utility.yul\":728:735   */\n      dup7\n        /* \"#utility.yul\":723:725   */\n      0x20\n        /* \"#utility.yul\":713:719   */\n      dup3\n        /* \"#utility.yul\":710:711   */\n      0x05\n        /* \"#utility.yul\":706:720   */\n      shl\n        /* \"#utility.yul\":702:704   */\n      dup6\n        /* \"#utility.yul\":698:721   */\n      add\n        /* \"#utility.yul\":694:726   */\n      add\n        /* \"#utility.yul\":691:736   */\n      gt\n        /* \"#utility.yul\":688:753   */\n      iszero\n      tag_184\n      jumpi\n        /* \"#utility.yul\":749:750   */\n      0x00\n        /* \"#utility.yul\":746:747   */\n      dup1\n        /* \"#utility.yul\":739:751   */\n      revert\n        /* \"#utility.yul\":688:753   */\n    tag_184:\n        /* \"#utility.yul\":780:782   */\n      0x20\n        /* \"#utility.yul\":772:783   */\n      swap3\n      swap1\n      swap3\n      add\n      swap7\n        /* \"#utility.yul\":802:808   */\n      swap2\n      swap6\n      pop\n        /* \"#utility.yul\":199:814   */\n      swap1\n      swap4\n      pop\n      pop\n      pop\n      pop\n      jump\t// out\n        /* \"#utility.yul\":1492:1646   */\n    tag_173:\n      sub(shl(0xa0, 0x01), 0x01)\n        /* \"#utility.yul\":1571:1576   */\n      dup2\n        /* \"#utility.yul\":1567:1621   */\n      and\n        /* \"#utility.yul\":1560:1565   */\n      dup2\n        /* \"#utility.yul\":1557:1622   */\n      eq\n        /* \"#utility.yul\":1547:1640   */\n      tag_189\n      jumpi\n        /* \"#utility.yul\":1636:1637   */\n      0x00\n        /* \"#utility.yul\":1633:1634   */\n      dup1\n        /* \"#utility.yul\":1626:1638   */\n      revert\n        /* \"#utility.yul\":1547:1640   */\n    tag_189:\n        /* \"#utility.yul\":1492:1646   */\n      pop\n      jump\t// out\n        /* \"#utility.yul\":1651:1898   */\n    tag_51:\n        /* \"#utility.yul\":1710:1716   */\n      0x00\n        /* \"#utility.yul\":1763:1765   */\n      0x20\n        /* \"#utility.yul\":1751:1760   */\n      dup3\n        /* \"#utility.yul\":1742:1749   */\n      dup5\n        /* \"#utility.yul\":1738:1761   */\n      sub\n        /* \"#utility.yul\":1734:1766   */\n      slt\n        /* \"#utility.yul\":1731:1783   */\n      iszero\n      tag_191\n      jumpi\n        /* \"#utility.yul\":1779:1780   */\n      0x00\n        /* \"#utility.yul\":1776:1777   */\n      dup1\n        /* \"#utility.yul\":1769:1781   */\n      revert\n        /* \"#utility.yul\":1731:1783   */\n    tag_191:\n        /* \"#utility.yul\":1818:1827   */\n      dup2\n        /* \"#utility.yul\":1805:1828   */\n      calldataload\n        /* \"#utility.yul\":1837:1868   */\n      tag_95\n        /* \"#utility.yul\":1862:1867   */\n      dup2\n        /* \"#utility.yul\":1837:1868   */\n      tag_173\n      jump\t// in\n        /* \"#utility.yul\":1903:2154   */\n    tag_58:\n        /* \"#utility.yul\":1973:1979   */\n      0x00\n        /* \"#utility.yul\":2026:2028   */\n      0x20\n        /* \"#utility.yul\":2014:2023   */\n      dup3\n        /* \"#utility.yul\":2005:2012   */\n      dup5\n        /* \"#utility.yul\":2001:2024   */\n      sub\n        /* \"#utility.yul\":1997:2029   */\n      slt\n        /* \"#utility.yul\":1994:2046   */\n      iszero\n      tag_194\n      jumpi\n        /* \"#utility.yul\":2042:2043   */\n      0x00\n        /* \"#utility.yul\":2039:2040   */\n      dup1\n        /* \"#utility.yul\":2032:2044   */\n      revert\n        /* \"#utility.yul\":1994:2046   */\n    tag_194:\n        /* \"#utility.yul\":2074:2083   */\n      dup2\n        /* \"#utility.yul\":2068:2084   */\n      mload\n        /* \"#utility.yul\":2093:2124   */\n      tag_95\n        /* \"#utility.yul\":2118:2123   */\n      dup2\n        /* \"#utility.yul\":2093:2124   */\n      tag_173\n      jump\t// in\n        /* \"#utility.yul\":3212:3339   */\n    tag_80:\n        /* \"#utility.yul\":3273:3283   */\n      0x4e487b71\n        /* \"#utility.yul\":3268:3271   */\n      0xe0\n        /* \"#utility.yul\":3264:3284   */\n      shl\n        /* \"#utility.yul\":3261:3262   */\n      0x00\n        /* \"#utility.yul\":3254:3285   */\n      mstore\n        /* \"#utility.yul\":3304:3308   */\n      0x32\n        /* \"#utility.yul\":3301:3302   */\n      0x04\n        /* \"#utility.yul\":3294:3309   */\n      mstore\n        /* \"#utility.yul\":3328:3332   */\n      0x24\n        /* \"#utility.yul\":3325:3326   */\n      0x00\n        /* \"#utility.yul\":3318:3333   */\n      revert\n        /* \"#utility.yul\":3344:3471   */\n    tag_174:\n        /* \"#utility.yul\":3405:3415   */\n      0x4e487b71\n        /* \"#utility.yul\":3400:3403   */\n      0xe0\n        /* \"#utility.yul\":3396:3416   */\n      shl\n        /* \"#utility.yul\":3393:3394   */\n      0x00\n        /* \"#utility.yul\":3386:3417   */\n      mstore\n        /* \"#utility.yul\":3436:3440   */\n      0x11\n        /* \"#utility.yul\":3433:3434   */\n      0x04\n        /* \"#utility.yul\":3426:3441   */\n      mstore\n        /* \"#utility.yul\":3460:3464   */\n      0x24\n        /* \"#utility.yul\":3457:3458   */\n      0x00\n        /* \"#utility.yul\":3450:3465   */\n      revert\n        /* \"#utility.yul\":3476:3611   */\n    tag_92:\n        /* \"#utility.yul\":3515:3518   */\n      0x00\n        /* \"#utility.yul\":3536:3553   */\n      0x01\n      dup3\n      add\n        /* \"#utility.yul\":3533:3576   */\n      tag_203\n      jumpi\n        /* \"#utility.yul\":3556:3574   */\n      tag_203\n      tag_174\n      jump\t// in\n    tag_203:\n      pop\n        /* \"#utility.yul\":3603:3604   */\n      0x01\n        /* \"#utility.yul\":3592:3605   */\n      add\n      swap1\n        /* \"#utility.yul\":3476:3611   */\n      jump\t// out\n        /* \"#utility.yul\":3616:3833   */\n    tag_96:\n        /* \"#utility.yul\":3656:3657   */\n      0x00\n        /* \"#utility.yul\":3682:3683   */\n      dup3\n        /* \"#utility.yul\":3672:3804   */\n      tag_205\n      jumpi\n        /* \"#utility.yul\":3726:3736   */\n      0x4e487b71\n        /* \"#utility.yul\":3721:3724   */\n      0xe0\n        /* \"#utility.yul\":3717:3737   */\n      shl\n        /* \"#utility.yul\":3714:3715   */\n      0x00\n        /* \"#utility.yul\":3707:3738   */\n      mstore\n        /* \"#utility.yul\":3761:3765   */\n      0x12\n        /* \"#utility.yul\":3758:3759   */\n      0x04\n        /* \"#utility.yul\":3751:3766   */\n      mstore\n        /* \"#utility.yul\":3789:3793   */\n      0x24\n        /* \"#utility.yul\":3786:3787   */\n      0x00\n        /* \"#utility.yul\":3779:3794   */\n      revert\n        /* \"#utility.yul\":3672:3804   */\n    tag_205:\n      pop\n        /* \"#utility.yul\":3818:3827   */\n      div\n      swap1\n        /* \"#utility.yul\":3616:3833   */\n      jump\t// out\n        /* \"#utility.yul\":3838:3963   */\n    tag_109:\n        /* \"#utility.yul\":3878:3882   */\n      0x00\n        /* \"#utility.yul\":3906:3907   */\n      dup3\n        /* \"#utility.yul\":3903:3904   */\n      dup3\n        /* \"#utility.yul\":3900:3908   */\n      lt\n        /* \"#utility.yul\":3897:3931   */\n      iszero\n      tag_208\n      jumpi\n        /* \"#utility.yul\":3911:3929   */\n      tag_208\n      tag_174\n      jump\t// in\n    tag_208:\n      pop\n        /* \"#utility.yul\":3948:3957   */\n      sub\n      swap1\n        /* \"#utility.yul\":3838:3963   */\n      jump\t// out\n        /* \"#utility.yul\":3968:4136   */\n    tag_111:\n        /* \"#utility.yul\":4008:4015   */\n      0x00\n        /* \"#utility.yul\":4074:4075   */\n      dup2\n        /* \"#utility.yul\":4070:4071   */\n      0x00\n        /* \"#utility.yul\":4066:4072   */\n      not\n        /* \"#utility.yul\":4062:4076   */\n      div\n        /* \"#utility.yul\":4059:4060   */\n      dup4\n        /* \"#utility.yul\":4056:4077   */\n      gt\n        /* \"#utility.yul\":4051:4052   */\n      dup3\n        /* \"#utility.yul\":4044:4053   */\n      iszero\n        /* \"#utility.yul\":4037:4054   */\n      iszero\n        /* \"#utility.yul\":4033:4078   */\n      and\n        /* \"#utility.yul\":4030:4101   */\n      iszero\n      tag_211\n      jumpi\n        /* \"#utility.yul\":4081:4099   */\n      tag_211\n      tag_174\n      jump\t// in\n    tag_211:\n      pop\n        /* \"#utility.yul\":4121:4130   */\n      mul\n      swap1\n        /* \"#utility.yul\":3968:4136   */\n      jump\t// out\n        /* \"#utility.yul\":4443:4720   */\n    tag_142:\n        /* \"#utility.yul\":4510:4516   */\n      0x00\n        /* \"#utility.yul\":4563:4565   */\n      0x20\n        /* \"#utility.yul\":4551:4560   */\n      dup3\n        /* \"#utility.yul\":4542:4549   */\n      dup5\n        /* \"#utility.yul\":4538:4561   */\n      sub\n        /* \"#utility.yul\":4534:4566   */\n      slt\n        /* \"#utility.yul\":4531:4583   */\n      iszero\n      tag_214\n      jumpi\n        /* \"#utility.yul\":4579:4580   */\n      0x00\n        /* \"#utility.yul\":4576:4577   */\n      dup1\n        /* \"#utility.yul\":4569:4581   */\n      revert\n        /* \"#utility.yul\":4531:4583   */\n    tag_214:\n        /* \"#utility.yul\":4611:4620   */\n      dup2\n        /* \"#utility.yul\":4605:4621   */\n      mload\n        /* \"#utility.yul\":4664:4669   */\n      dup1\n        /* \"#utility.yul\":4657:4670   */\n      iszero\n        /* \"#utility.yul\":4650:4671   */\n      iszero\n        /* \"#utility.yul\":4643:4648   */\n      dup2\n        /* \"#utility.yul\":4640:4672   */\n      eq\n        /* \"#utility.yul\":4630:4690   */\n      tag_95\n      jumpi\n        /* \"#utility.yul\":4686:4687   */\n      0x00\n        /* \"#utility.yul\":4683:4684   */\n      dup1\n        /* \"#utility.yul\":4676:4688   */\n      revert\n        /* \"#utility.yul\":5901:6159   */\n    tag_175:\n        /* \"#utility.yul\":5973:5974   */\n      0x00\n        /* \"#utility.yul\":5983:6096   */\n    tag_220:\n        /* \"#utility.yul\":5997:6003   */\n      dup4\n        /* \"#utility.yul\":5994:5995   */\n      dup2\n        /* \"#utility.yul\":5991:6004   */\n      lt\n        /* \"#utility.yul\":5983:6096   */\n      iszero\n      tag_222\n      jumpi\n        /* \"#utility.yul\":6073:6084   */\n      dup2\n      dup2\n      add\n        /* \"#utility.yul\":6067:6085   */\n      mload\n        /* \"#utility.yul\":6054:6065   */\n      dup4\n      dup3\n      add\n        /* \"#utility.yul\":6047:6086   */\n      mstore\n        /* \"#utility.yul\":6019:6021   */\n      0x20\n        /* \"#utility.yul\":6012:6022   */\n      add\n        /* \"#utility.yul\":5983:6096   */\n      jump(tag_220)\n    tag_222:\n        /* \"#utility.yul\":6114:6120   */\n      dup4\n        /* \"#utility.yul\":6111:6112   */\n      dup2\n        /* \"#utility.yul\":6108:6121   */\n      gt\n        /* \"#utility.yul\":6105:6153   */\n      iszero\n      tag_76\n      jumpi\n      pop\n      pop\n        /* \"#utility.yul\":6149:6150   */\n      0x00\n        /* \"#utility.yul\":6131:6147   */\n      swap2\n      add\n        /* \"#utility.yul\":6124:6151   */\n      mstore\n        /* \"#utility.yul\":5901:6159   */\n      jump\t// out\n        /* \"#utility.yul\":6164:6438   */\n    tag_159:\n        /* \"#utility.yul\":6293:6296   */\n      0x00\n        /* \"#utility.yul\":6331:6337   */\n      dup3\n        /* \"#utility.yul\":6325:6338   */\n      mload\n        /* \"#utility.yul\":6347:6400   */\n      tag_225\n        /* \"#utility.yul\":6393:6399   */\n      dup2\n        /* \"#utility.yul\":6388:6391   */\n      dup5\n        /* \"#utility.yul\":6381:6385   */\n      0x20\n        /* \"#utility.yul\":6373:6379   */\n      dup8\n        /* \"#utility.yul\":6369:6386   */\n      add\n        /* \"#utility.yul\":6347:6400   */\n      tag_175\n      jump\t// in\n    tag_225:\n        /* \"#utility.yul\":6416:6432   */\n      swap2\n      swap1\n      swap2\n      add\n      swap3\n        /* \"#utility.yul\":6164:6438   */\n      swap2\n      pop\n      pop\n      jump\t// out\n        /* \"#utility.yul\":6443:6826   */\n    tag_172:\n        /* \"#utility.yul\":6592:6594   */\n      0x20\n        /* \"#utility.yul\":6581:6590   */\n      dup2\n        /* \"#utility.yul\":6574:6595   */\n      mstore\n        /* \"#utility.yul\":6555:6559   */\n      0x00\n        /* \"#utility.yul\":6624:6630   */\n      dup3\n        /* \"#utility.yul\":6618:6631   */\n      mload\n        /* \"#utility.yul\":6667:6673   */\n      dup1\n        /* \"#utility.yul\":6662:6664   */\n      0x20\n        /* \"#utility.yul\":6651:6660   */\n      dup5\n        /* \"#utility.yul\":6647:6665   */\n      add\n        /* \"#utility.yul\":6640:6674   */\n      mstore\n        /* \"#utility.yul\":6683:6749   */\n      tag_227\n        /* \"#utility.yul\":6742:6748   */\n      dup2\n        /* \"#utility.yul\":6737:6739   */\n      0x40\n        /* \"#utility.yul\":6726:6735   */\n      dup6\n        /* \"#utility.yul\":6722:6740   */\n      add\n        /* \"#utility.yul\":6717:6719   */\n      0x20\n        /* \"#utility.yul\":6709:6715   */\n      dup8\n        /* \"#utility.yul\":6705:6720   */\n      add\n        /* \"#utility.yul\":6683:6749   */\n      tag_175\n      jump\t// in\n    tag_227:\n        /* \"#utility.yul\":6810:6812   */\n      0x1f\n        /* \"#utility.yul\":6789:6804   */\n      add\n      not(0x1f)\n        /* \"#utility.yul\":6785:6814   */\n      and\n        /* \"#utility.yul\":6770:6815   */\n      swap2\n      swap1\n      swap2\n      add\n        /* \"#utility.yul\":6817:6819   */\n      0x40\n        /* \"#utility.yul\":6766:6820   */\n      add\n      swap3\n        /* \"#utility.yul\":6443:6826   */\n      swap2\n      pop\n      pop\n      jump\t// out\n\n    auxdata: 0xa264697066735822122019e78198d4a86122d4427a0af56f017b2153aa66569699d5faacaba20eac16c564736f6c634300080d0033\n}\n",
    "bytecode": {
      "linkReferences": {},
      "object": "60c0604052678ac7230489e8000060045534801561001c57600080fd5b50604051610db7380380610db783398101604081905261003b91610082565b600160008190556001600160a01b0392831660a052911660805280546001600160a01b031916331790556100bc565b6001600160a01b038116811461007f57600080fd5b50565b6000806040838503121561009557600080fd5b82516100a08161006a565b60208401519092506100b18161006a565b809150509250929050565b60805160a051610cba6100fd60003960008181610132015281816101e201526103d001526000818161018d01528181610323015261052e0152610cba6000f3fe608060405234801561001057600080fd5b50600436106100be5760003560e01c80636588103b11610076578063c6f221aa1161005b578063c6f221aa1461017f578063d1af0c7d14610188578063f5a1f5b4146101af57600080fd5b80636588103b1461012d578063a5e2f9d91461016c57600080fd5b806329183872116100a757806329183872146100eb57806338c4c7ce146100fe57806361c02efb1461011a57600080fd5b80630962ef79146100c3578063195199f6146100d8575b600080fd5b6100d66100d1366004610a6a565b6101c2565b005b6100d66100e6366004610a6a565b61034e565b6100d66100f9366004610a83565b61039d565b61010760025481565b6040519081526020015b60405180910390f35b610107610128366004610a6a565b61056e565b6101547f000000000000000000000000000000000000000000000000000000000000000081565b6040516001600160a01b039091168152602001610111565b6100d661017a366004610a6a565b610595565b61010760035481565b6101547f000000000000000000000000000000000000000000000000000000000000000081565b6100d66101bd366004610b10565b6105e4565b6040516331a9108f60e11b81526004810182905233906001600160a01b037f00000000000000000000000000000000000000000000000000000000000000001690636352211e90602401602060405180830381865afa158015610229573d6000803e3d6000fd5b505050506040513d601f19601f8201168201806040525081019061024d9190610b2d565b6001600160a01b0316146102a85760405162461bcd60e51b815260206004820152601960248201527f596f7520646f6e2774206f776e207468697320746f6b656e210000000000000060448201526064015b60405180910390fd5b60006102b382610668565b9050600081116103055760405162461bcd60e51b815260206004820152601c60248201527f596f752068617665206e6f207265776172647320746f20636c61696d00000000604482015260640161029f565b600082815260056020526040902042905561034a6001600160a01b037f0000000000000000000000000000000000000000000000000000000000000000163383610781565b5050565b6001546001600160a01b031633146103985760405162461bcd60e51b815260206004820152600d60248201526c2737ba103a34329037bbb732b960991b604482015260640161029f565b600355565b6000805b82811015610568578383828181106103bb576103bb610b4a565b905060200201359150336001600160a01b03167f00000000000000000000000000000000000000000000000000000000000000006001600160a01b0316636352211e846040518263ffffffff1660e01b815260040161041c91815260200190565b602060405180830381865afa158015610439573d6000803e3d6000fd5b505050506040513d601f19601f8201168201806040525081019061045d9190610b2d565b6001600160a01b0316146104b35760405162461bcd60e51b815260206004820152601960248201527f596f7520646f6e2774206f776e207468697320746f6b656e2100000000000000604482015260640161029f565b60006104be83610668565b9050600081116105105760405162461bcd60e51b815260206004820152601c60248201527f596f752068617665206e6f207265776172647320746f20636c61696d00000000604482015260640161029f565b60008381526005602052604090204290556105556001600160a01b037f0000000000000000000000000000000000000000000000000000000000000000163383610781565b508061056081610b76565b9150506103a1565b50505050565b60008061057a83610668565b905061058e670de0b6b3a764000082610b8f565b9392505050565b6001546001600160a01b031633146105df5760405162461bcd60e51b815260206004820152600d60248201526c2737ba103a34329037bbb732b960991b604482015260640161029f565b600255565b6001546001600160a01b0316331461062e5760405162461bcd60e51b815260206004820152600d60248201526c2737ba103a34329037bbb732b960991b604482015260640161029f565b600180547fffffffffffffffffffffffff0000000000000000000000000000000000000000166001600160a01b0392909216919091179055565b60008181526005602052604081205415801561068657506003544211155b156106b857603c6004546002544261069e9190610bb1565b6106a89190610bc8565b6106b29190610b8f565b92915050565b6000828152600560205260409020541580156106d5575060035442115b156106ef57603c60045460025460035461069e9190610bb1565b6003544211801561070d575060008281526005602052604090205415155b1561073457600454600083815260056020526040902054600354603c929161069e91610bb1565b600354421180156107545750600354600083815260056020526040902054115b1561076157506000919050565b600454600083815260056020526040902054603c919061069e9042610bb1565b604080516001600160a01b038416602482015260448082018490528251808303909101815260649091019091526020810180517bffffffffffffffffffffffffffffffffffffffffffffffffffffffff1663a9059cbb60e01b1790526107e89084906107ed565b505050565b6000610842826040518060400160405280602081526020017f5361666545524332303a206c6f772d6c6576656c2063616c6c206661696c6564815250856001600160a01b03166108d29092919063ffffffff16565b8051909150156107e857808060200190518101906108609190610be7565b6107e85760405162461bcd60e51b815260206004820152602a60248201527f5361666545524332303a204552433230206f7065726174696f6e20646964206e60448201527f6f74207375636365656400000000000000000000000000000000000000000000606482015260840161029f565b60606108e184846000856108e9565b949350505050565b6060824710156109615760405162461bcd60e51b815260206004820152602660248201527f416464726573733a20696e73756666696369656e742062616c616e636520666f60448201527f722063616c6c0000000000000000000000000000000000000000000000000000606482015260840161029f565b6001600160a01b0385163b6109b85760405162461bcd60e51b815260206004820152601d60248201527f416464726573733a2063616c6c20746f206e6f6e2d636f6e7472616374000000604482015260640161029f565b600080866001600160a01b031685876040516109d49190610c35565b60006040518083038185875af1925050503d8060008114610a11576040519150601f19603f3d011682016040523d82523d6000602084013e610a16565b606091505b5091509150610a26828286610a31565b979650505050505050565b60608315610a4057508161058e565b825115610a505782518084602001fd5b8160405162461bcd60e51b815260040161029f9190610c51565b600060208284031215610a7c57600080fd5b5035919050565b60008060208385031215610a9657600080fd5b823567ffffffffffffffff80821115610aae57600080fd5b818501915085601f830112610ac257600080fd5b813581811115610ad157600080fd5b8660208260051b8501011115610ae657600080fd5b60209290920196919550909350505050565b6001600160a01b0381168114610b0d57600080fd5b50565b600060208284031215610b2257600080fd5b813561058e81610af8565b600060208284031215610b3f57600080fd5b815161058e81610af8565b634e487b7160e01b600052603260045260246000fd5b634e487b7160e01b600052601160045260246000fd5b600060018201610b8857610b88610b60565b5060010190565b600082610bac57634e487b7160e01b600052601260045260246000fd5b500490565b600082821015610bc357610bc3610b60565b500390565b6000816000190483118215151615610be257610be2610b60565b500290565b600060208284031215610bf957600080fd5b8151801515811461058e57600080fd5b60005b83811015610c24578181015183820152602001610c0c565b838111156105685750506000910152565b60008251610c47818460208701610c09565b9190910192915050565b6020815260008251806020840152610c70816040850160208701610c09565b601f01601f1916919091016040019291505056fea264697066735822122019e78198d4a86122d4427a0af56f017b2153aa66569699d5faacaba20eac16c564736f6c634300080d0033",
      "opcodes": "PUSH1 0xC0 PUSH1 0x40 MSTORE PUSH8 0x8AC7230489E80000 PUSH1 0x4 SSTORE CALLVALUE DUP1 ISZERO PUSH2 0x1C JUMPI PUSH1 0x0 DUP1 REVERT JUMPDEST POP PUSH1 0x40 MLOAD PUSH2 0xDB7 CODESIZE SUB DUP1 PUSH2 0xDB7 DUP4 CODECOPY DUP2 ADD PUSH1 0x40 DUP2 SWAP1 MSTORE PUSH2 0x3B SWAP2 PUSH2 0x82 JUMP JUMPDEST PUSH1 0x1 PUSH1 0x0 DUP2 SWAP1 SSTORE PUSH1 0x1 PUSH1 0x1 PUSH1 0xA0 SHL SUB SWAP3 DUP4 AND PUSH1 0xA0 MSTORE SWAP2 AND PUSH1 0x80 MSTORE DUP1 SLOAD PUSH1 0x1 PUSH1 0x1 PUSH1 0xA0 SHL SUB NOT AND CALLER OR SWAP1 SSTORE PUSH2 0xBC JUMP JUMPDEST PUSH1 0x1 PUSH1 0x1 PUSH1 0xA0 SHL SUB DUP2 AND DUP2 EQ PUSH2 0x7F JUMPI PUSH1 0x0 DUP1 REVERT JUMPDEST POP JUMP JUMPDEST PUSH1 0x0 DUP1 PUSH1 0x40 DUP4 DUP6 SUB SLT ISZERO PUSH2 0x95 JUMPI PUSH1 0x0 DUP1 REVERT JUMPDEST DUP3 MLOAD PUSH2 0xA0 DUP2 PUSH2 0x6A JUMP JUMPDEST PUSH1 0x20 DUP5 ADD MLOAD SWAP1 SWAP3 POP PUSH2 0xB1 DUP2 PUSH2 0x6A JUMP JUMPDEST DUP1 SWAP2 POP POP SWAP3 POP SWAP3 SWAP1 POP JUMP JUMPDEST PUSH1 0x80 MLOAD PUSH1 0xA0 MLOAD PUSH2 0xCBA PUSH2 0xFD PUSH1 0x0 CODECOPY PUSH1 0x0 DUP2 DUP2 PUSH2 0x132 ADD MSTORE DUP2 DUP2 PUSH2 0x1E2 ADD MSTORE PUSH2 0x3D0 ADD MSTORE PUSH1 0x0 DUP2 DUP2 PUSH2 0x18D ADD MSTORE DUP2 DUP2 PUSH2 0x323 ADD MSTORE PUSH2 0x52E ADD MSTORE PUSH2 0xCBA PUSH1 0x0 RETURN INVALID PUSH1 0x80 PUSH1 0x40 MSTORE CALLVALUE DUP1 ISZERO PUSH2 0x10 JUMPI PUSH1 0x0 DUP1 REVERT JUMPDEST POP PUSH1 0x4 CALLDATASIZE LT PUSH2 0xBE JUMPI PUSH1 0x0 CALLDATALOAD PUSH1 0xE0 SHR DUP1 PUSH4 0x6588103B GT PUSH2 0x76 JUMPI DUP1 PUSH4 0xC6F221AA GT PUSH2 0x5B JUMPI DUP1 PUSH4 0xC6F221AA EQ PUSH2 0x17F JUMPI DUP1 PUSH4 0xD1AF0C7D EQ PUSH2 0x188 JUMPI DUP1 PUSH4 0xF5A1F5B4 EQ PUSH2 0x1AF JUMPI PUSH1 0x0 DUP1 REVERT JUMPDEST DUP1 PUSH4 0x6588103B EQ PUSH2 0x12D JUMPI DUP1 PUSH4 0xA5E2F9D9 EQ PUSH2 0x16C JUMPI PUSH1 0x0 DUP1 REVERT JUMPDEST DUP1 PUSH4 0x29183872 GT PUSH2 0xA7 JUMPI DUP1 PUSH4 0x29183872 EQ PUSH2 0xEB JUMPI DUP1 PUSH4 0x38C4C7CE EQ PUSH2 0xFE JUMPI DUP1 PUSH4 0x61C02EFB EQ PUSH2 0x11A JUMPI PUSH1 0x0 DUP1 REVERT JUMPDEST DUP1 PUSH4 0x962EF79 EQ PUSH2 0xC3 JUMPI DUP1 PUSH4 0x195199F6 EQ PUSH2 0xD8 JUMPI JUMPDEST PUSH1 0x0 DUP1 REVERT JUMPDEST PUSH2 0xD6 PUSH2 0xD1 CALLDATASIZE PUSH1 0x4 PUSH2 0xA6A JUMP JUMPDEST PUSH2 0x1C2 JUMP JUMPDEST STOP JUMPDEST PUSH2 0xD6 PUSH2 0xE6 CALLDATASIZE PUSH1 0x4 PUSH2 0xA6A JUMP JUMPDEST PUSH2 0x34E JUMP JUMPDEST PUSH2 0xD6 PUSH2 0xF9 CALLDATASIZE PUSH1 0x4 PUSH2 0xA83 JUMP JUMPDEST PUSH2 0x39D JUMP JUMPDEST PUSH2 0x107 PUSH1 0x2 SLOAD DUP2 JUMP JUMPDEST PUSH1 0x40 MLOAD SWAP1 DUP2 MSTORE PUSH1 0x20 ADD JUMPDEST PUSH1 0x40 MLOAD DUP1 SWAP2 SUB SWAP1 RETURN JUMPDEST PUSH2 0x107 PUSH2 0x128 CALLDATASIZE PUSH1 0x4 PUSH2 0xA6A JUMP JUMPDEST PUSH2 0x56E JUMP JUMPDEST PUSH2 0x154 PUSH32 0x0 DUP2 JUMP JUMPDEST PUSH1 0x40 MLOAD PUSH1 0x1 PUSH1 0x1 PUSH1 0xA0 SHL SUB SWAP1 SWAP2 AND DUP2 MSTORE PUSH1 0x20 ADD PUSH2 0x111 JUMP JUMPDEST PUSH2 0xD6 PUSH2 0x17A CALLDATASIZE PUSH1 0x4 PUSH2 0xA6A JUMP JUMPDEST PUSH2 0x595 JUMP JUMPDEST PUSH2 0x107 PUSH1 0x3 SLOAD DUP2 JUMP JUMPDEST PUSH2 0x154 PUSH32 0x0 DUP2 JUMP JUMPDEST PUSH2 0xD6 PUSH2 0x1BD CALLDATASIZE PUSH1 0x4 PUSH2 0xB10 JUMP JUMPDEST PUSH2 0x5E4 JUMP JUMPDEST PUSH1 0x40 MLOAD PUSH4 0x31A9108F PUSH1 0xE1 SHL DUP2 MSTORE PUSH1 0x4 DUP2 ADD DUP3 SWAP1 MSTORE CALLER SWAP1 PUSH1 0x1 PUSH1 0x1 PUSH1 0xA0 SHL SUB PUSH32 0x0 AND SWAP1 PUSH4 0x6352211E SWAP1 PUSH1 0x24 ADD PUSH1 0x20 PUSH1 0x40 MLOAD DUP1 DUP4 SUB DUP2 DUP7 GAS STATICCALL ISZERO DUP1 ISZERO PUSH2 0x229 JUMPI RETURNDATASIZE PUSH1 0x0 DUP1 RETURNDATACOPY RETURNDATASIZE PUSH1 0x0 REVERT JUMPDEST POP POP POP POP PUSH1 0x40 MLOAD RETURNDATASIZE PUSH1 0x1F NOT PUSH1 0x1F DUP3 ADD AND DUP3 ADD DUP1 PUSH1 0x40 MSTORE POP DUP2 ADD SWAP1 PUSH2 0x24D SWAP2 SWAP1 PUSH2 0xB2D JUMP JUMPDEST PUSH1 0x1 PUSH1 0x1 PUSH1 0xA0 SHL SUB AND EQ PUSH2 0x2A8 JUMPI PUSH1 0x40 MLOAD PUSH3 0x461BCD PUSH1 0xE5 SHL DUP2 MSTORE PUSH1 0x20 PUSH1 0x4 DUP3 ADD MSTORE PUSH1 0x19 PUSH1 0x24 DUP3 ADD MSTORE PUSH32 0x596F7520646F6E2774206F776E207468697320746F6B656E2100000000000000 PUSH1 0x44 DUP3 ADD MSTORE PUSH1 0x64 ADD JUMPDEST PUSH1 0x40 MLOAD DUP1 SWAP2 SUB SWAP1 REVERT JUMPDEST PUSH1 0x0 PUSH2 0x2B3 DUP3 PUSH2 0x668 JUMP JUMPDEST SWAP1 POP PUSH1 0x0 DUP2 GT PUSH2 0x305 JUMPI PUSH1 0x40 MLOAD PUSH3 0x461BCD PUSH1 0xE5 SHL DUP2 MSTORE PUSH1 0x20 PUSH1 0x4 DUP3 ADD MSTORE PUSH1 0x1C PUSH1 0x24 DUP3 ADD MSTORE PUSH32 0x596F752068617665206E6F207265776172647320746F20636C61696D00000000 PUSH1 0x44 DUP3 ADD MSTORE PUSH1 0x64 ADD PUSH2 0x29F JUMP JUMPDEST PUSH1 0x0 DUP3 DUP2 MSTORE PUSH1 0x5 PUSH1 0x20 MSTORE PUSH1 0x40 SWAP1 KECCAK256 TIMESTAMP SWAP1 SSTORE PUSH2 0x34A PUSH1 0x1 PUSH1 0x1 PUSH1 0xA0 SHL SUB PUSH32 0x0 AND CALLER DUP4 PUSH2 0x781 JUMP JUMPDEST POP POP JUMP JUMPDEST PUSH1 0x1 SLOAD PUSH1 0x1 PUSH1 0x1 PUSH1 0xA0 SHL SUB AND CALLER EQ PUSH2 0x398 JUMPI PUSH1 0x40 MLOAD PUSH3 0x461BCD PUSH1 0xE5 SHL DUP2 MSTORE PUSH1 0x20 PUSH1 0x4 DUP3 ADD MSTORE PUSH1 0xD PUSH1 0x24 DUP3 ADD MSTORE PUSH13 0x2737BA103A34329037BBB732B9 PUSH1 0x99 SHL PUSH1 0x44 DUP3 ADD MSTORE PUSH1 0x64 ADD PUSH2 0x29F JUMP JUMPDEST PUSH1 0x3 SSTORE JUMP JUMPDEST PUSH1 0x0 DUP1 JUMPDEST DUP3 DUP2 LT ISZERO PUSH2 0x568 JUMPI DUP4 DUP4 DUP3 DUP2 DUP2 LT PUSH2 0x3BB JUMPI PUSH2 0x3BB PUSH2 0xB4A JUMP JUMPDEST SWAP1 POP PUSH1 0x20 MUL ADD CALLDATALOAD SWAP2 POP CALLER PUSH1 0x1 PUSH1 0x1 PUSH1 0xA0 SHL SUB AND PUSH32 0x0 PUSH1 0x1 PUSH1 0x1 PUSH1 0xA0 SHL SUB AND PUSH4 0x6352211E DUP5 PUSH1 0x40 MLOAD DUP3 PUSH4 0xFFFFFFFF AND PUSH1 0xE0 SHL DUP2 MSTORE PUSH1 0x4 ADD PUSH2 0x41C SWAP2 DUP2 MSTORE PUSH1 0x20 ADD SWAP1 JUMP JUMPDEST PUSH1 0x20 PUSH1 0x40 MLOAD DUP1 DUP4 SUB DUP2 DUP7 GAS STATICCALL ISZERO DUP1 ISZERO PUSH2 0x439 JUMPI RETURNDATASIZE PUSH1 0x0 DUP1 RETURNDATACOPY RETURNDATASIZE PUSH1 0x0 REVERT JUMPDEST POP POP POP POP PUSH1 0x40 MLOAD RETURNDATASIZE PUSH1 0x1F NOT PUSH1 0x1F DUP3 ADD AND DUP3 ADD DUP1 PUSH1 0x40 MSTORE POP DUP2 ADD SWAP1 PUSH2 0x45D SWAP2 SWAP1 PUSH2 0xB2D JUMP JUMPDEST PUSH1 0x1 PUSH1 0x1 PUSH1 0xA0 SHL SUB AND EQ PUSH2 0x4B3 JUMPI PUSH1 0x40 MLOAD PUSH3 0x461BCD PUSH1 0xE5 SHL DUP2 MSTORE PUSH1 0x20 PUSH1 0x4 DUP3 ADD MSTORE PUSH1 0x19 PUSH1 0x24 DUP3 ADD MSTORE PUSH32 0x596F7520646F6E2774206F776E207468697320746F6B656E2100000000000000 PUSH1 0x44 DUP3 ADD MSTORE PUSH1 0x64 ADD PUSH2 0x29F JUMP JUMPDEST PUSH1 0x0 PUSH2 0x4BE DUP4 PUSH2 0x668 JUMP JUMPDEST SWAP1 POP PUSH1 0x0 DUP2 GT PUSH2 0x510 JUMPI PUSH1 0x40 MLOAD PUSH3 0x461BCD PUSH1 0xE5 SHL DUP2 MSTORE PUSH1 0x20 PUSH1 0x4 DUP3 ADD MSTORE PUSH1 0x1C PUSH1 0x24 DUP3 ADD MSTORE PUSH32 0x596F752068617665206E6F207265776172647320746F20636C61696D00000000 PUSH1 0x44 DUP3 ADD MSTORE PUSH1 0x64 ADD PUSH2 0x29F JUMP JUMPDEST PUSH1 0x0 DUP4 DUP2 MSTORE PUSH1 0x5 PUSH1 0x20 MSTORE PUSH1 0x40 SWAP1 KECCAK256 TIMESTAMP SWAP1 SSTORE PUSH2 0x555 PUSH1 0x1 PUSH1 0x1 PUSH1 0xA0 SHL SUB PUSH32 0x0 AND CALLER DUP4 PUSH2 0x781 JUMP JUMPDEST POP DUP1 PUSH2 0x560 DUP2 PUSH2 0xB76 JUMP JUMPDEST SWAP2 POP POP PUSH2 0x3A1 JUMP JUMPDEST POP POP POP POP JUMP JUMPDEST PUSH1 0x0 DUP1 PUSH2 0x57A DUP4 PUSH2 0x668 JUMP JUMPDEST SWAP1 POP PUSH2 0x58E PUSH8 0xDE0B6B3A7640000 DUP3 PUSH2 0xB8F JUMP JUMPDEST SWAP4 SWAP3 POP POP POP JUMP JUMPDEST PUSH1 0x1 SLOAD PUSH1 0x1 PUSH1 0x1 PUSH1 0xA0 SHL SUB AND CALLER EQ PUSH2 0x5DF JUMPI PUSH1 0x40 MLOAD PUSH3 0x461BCD PUSH1 0xE5 SHL DUP2 MSTORE PUSH1 0x20 PUSH1 0x4 DUP3 ADD MSTORE PUSH1 0xD PUSH1 0x24 DUP3 ADD MSTORE PUSH13 0x2737BA103A34329037BBB732B9 PUSH1 0x99 SHL PUSH1 0x44 DUP3 ADD MSTORE PUSH1 0x64 ADD PUSH2 0x29F JUMP JUMPDEST PUSH1 0x2 SSTORE JUMP JUMPDEST PUSH1 0x1 SLOAD PUSH1 0x1 PUSH1 0x1 PUSH1 0xA0 SHL SUB AND CALLER EQ PUSH2 0x62E JUMPI PUSH1 0x40 MLOAD PUSH3 0x461BCD PUSH1 0xE5 SHL DUP2 MSTORE PUSH1 0x20 PUSH1 0x4 DUP3 ADD MSTORE PUSH1 0xD PUSH1 0x24 DUP3 ADD MSTORE PUSH13 0x2737BA103A34329037BBB732B9 PUSH1 0x99 SHL PUSH1 0x44 DUP3 ADD MSTORE PUSH1 0x64 ADD PUSH2 0x29F JUMP JUMPDEST PUSH1 0x1 DUP1 SLOAD PUSH32 0xFFFFFFFFFFFFFFFFFFFFFFFF0000000000000000000000000000000000000000 AND PUSH1 0x1 PUSH1 0x1 PUSH1 0xA0 SHL SUB SWAP3 SWAP1 SWAP3 AND SWAP2 SWAP1 SWAP2 OR SWAP1 SSTORE JUMP JUMPDEST PUSH1 0x0 DUP2 DUP2 MSTORE PUSH1 0x5 PUSH1 0x20 MSTORE PUSH1 0x40 DUP2 KECCAK256 SLOAD ISZERO DUP1 ISZERO PUSH2 0x686 JUMPI POP PUSH1 0x3 SLOAD TIMESTAMP GT ISZERO JUMPDEST ISZERO PUSH2 0x6B8 JUMPI PUSH1 0x3C PUSH1 0x4 SLOAD PUSH1 0x2 SLOAD TIMESTAMP PUSH2 0x69E SWAP2 SWAP1 PUSH2 0xBB1 JUMP JUMPDEST PUSH2 0x6A8 SWAP2 SWAP1 PUSH2 0xBC8 JUMP JUMPDEST PUSH2 0x6B2 SWAP2 SWAP1 PUSH2 0xB8F JUMP JUMPDEST SWAP3 SWAP2 POP POP JUMP JUMPDEST PUSH1 0x0 DUP3 DUP2 MSTORE PUSH1 0x5 PUSH1 0x20 MSTORE PUSH1 0x40 SWAP1 KECCAK256 SLOAD ISZERO DUP1 ISZERO PUSH2 0x6D5 JUMPI POP PUSH1 0x3 SLOAD TIMESTAMP GT JUMPDEST ISZERO PUSH2 0x6EF JUMPI PUSH1 0x3C PUSH1 0x4 SLOAD PUSH1 0x2 SLOAD PUSH1 0x3 SLOAD PUSH2 0x69E SWAP2 SWAP1 PUSH2 0xBB1 JUMP JUMPDEST PUSH1 0x3 SLOAD TIMESTAMP GT DUP1 ISZERO PUSH2 0x70D JUMPI POP PUSH1 0x0 DUP3 DUP2 MSTORE PUSH1 0x5 PUSH1 0x20 MSTORE PUSH1 0x40 SWAP1 KECCAK256 SLOAD ISZERO ISZERO JUMPDEST ISZERO PUSH2 0x734 JUMPI PUSH1 0x4 SLOAD PUSH1 0x0 DUP4 DUP2 MSTORE PUSH1 0x5 PUSH1 0x20 MSTORE PUSH1 0x40 SWAP1 KECCAK256 SLOAD PUSH1 0x3 SLOAD PUSH1 0x3C SWAP3 SWAP2 PUSH2 0x69E SWAP2 PUSH2 0xBB1 JUMP JUMPDEST PUSH1 0x3 SLOAD TIMESTAMP GT DUP1 ISZERO PUSH2 0x754 JUMPI POP PUSH1 0x3 SLOAD PUSH1 0x0 DUP4 DUP2 MSTORE PUSH1 0x5 PUSH1 0x20 MSTORE PUSH1 0x40 SWAP1 KECCAK256 SLOAD GT JUMPDEST ISZERO PUSH2 0x761 JUMPI POP PUSH1 0x0 SWAP2 SWAP1 POP JUMP JUMPDEST PUSH1 0x4 SLOAD PUSH1 0x0 DUP4 DUP2 MSTORE PUSH1 0x5 PUSH1 0x20 MSTORE PUSH1 0x40 SWAP1 KECCAK256 SLOAD PUSH1 0x3C SWAP2 SWAP1 PUSH2 0x69E SWAP1 TIMESTAMP PUSH2 0xBB1 JUMP JUMPDEST PUSH1 0x40 DUP1 MLOAD PUSH1 0x1 PUSH1 0x1 PUSH1 0xA0 SHL SUB DUP5 AND PUSH1 0x24 DUP3 ADD MSTORE PUSH1 0x44 DUP1 DUP3 ADD DUP5 SWAP1 MSTORE DUP3 MLOAD DUP1 DUP4 SUB SWAP1 SWAP2 ADD DUP2 MSTORE PUSH1 0x64 SWAP1 SWAP2 ADD SWAP1 SWAP2 MSTORE PUSH1 0x20 DUP2 ADD DUP1 MLOAD PUSH28 0xFFFFFFFFFFFFFFFFFFFFFFFFFFFFFFFFFFFFFFFFFFFFFFFFFFFFFFFF AND PUSH4 0xA9059CBB PUSH1 0xE0 SHL OR SWAP1 MSTORE PUSH2 0x7E8 SWAP1 DUP5 SWAP1 PUSH2 0x7ED JUMP JUMPDEST POP POP POP JUMP JUMPDEST PUSH1 0x0 PUSH2 0x842 DUP3 PUSH1 0x40 MLOAD DUP1 PUSH1 0x40 ADD PUSH1 0x40 MSTORE DUP1 PUSH1 0x20 DUP2 MSTORE PUSH1 0x20 ADD PUSH32 0x5361666545524332303A206C6F772D6C6576656C2063616C6C206661696C6564 DUP2 MSTORE POP DUP6 PUSH1 0x1 PUSH1 0x1 PUSH1 0xA0 SHL SUB AND PUSH2 0x8D2 SWAP1 SWAP3 SWAP2 SWAP1 PUSH4 0xFFFFFFFF AND JUMP JUMPDEST DUP1 MLOAD SWAP1 SWAP2 POP ISZERO PUSH2 0x7E8 JUMPI DUP1 DUP1 PUSH1 0x20 ADD SWAP1 MLOAD DUP2 ADD SWAP1 PUSH2 0x860 SWAP2 SWAP1 PUSH2 0xBE7 JUMP JUMPDEST PUSH2 0x7E8 JUMPI PUSH1 0x40 MLOAD PUSH3 0x461BCD PUSH1 0xE5 SHL DUP2 MSTORE PUSH1 0x20 PUSH1 0x4 DUP3 ADD MSTORE PUSH1 0x2A PUSH1 0x24 DUP3 ADD MSTORE PUSH32 0x5361666545524332303A204552433230206F7065726174696F6E20646964206E PUSH1 0x44 DUP3 ADD MSTORE PUSH32 0x6F74207375636365656400000000000000000000000000000000000000000000 PUSH1 0x64 DUP3 ADD MSTORE PUSH1 0x84 ADD PUSH2 0x29F JUMP JUMPDEST PUSH1 0x60 PUSH2 0x8E1 DUP5 DUP5 PUSH1 0x0 DUP6 PUSH2 0x8E9 JUMP JUMPDEST SWAP5 SWAP4 POP POP POP POP JUMP JUMPDEST PUSH1 0x60 DUP3 SELFBALANCE LT ISZERO PUSH2 0x961 JUMPI PUSH1 0x40 MLOAD PUSH3 0x461BCD PUSH1 0xE5 SHL DUP2 MSTORE PUSH1 0x20 PUSH1 0x4 DUP3 ADD MSTORE PUSH1 0x26 PUSH1 0x24 DUP3 ADD MSTORE PUSH32 0x416464726573733A20696E73756666696369656E742062616C616E636520666F PUSH1 0x44 DUP3 ADD MSTORE PUSH32 0x722063616C6C0000000000000000000000000000000000000000000000000000 PUSH1 0x64 DUP3 ADD MSTORE PUSH1 0x84 ADD PUSH2 0x29F JUMP JUMPDEST PUSH1 0x1 PUSH1 0x1 PUSH1 0xA0 SHL SUB DUP6 AND EXTCODESIZE PUSH2 0x9B8 JUMPI PUSH1 0x40 MLOAD PUSH3 0x461BCD PUSH1 0xE5 SHL DUP2 MSTORE PUSH1 0x20 PUSH1 0x4 DUP3 ADD MSTORE PUSH1 0x1D PUSH1 0x24 DUP3 ADD MSTORE PUSH32 0x416464726573733A2063616C6C20746F206E6F6E2D636F6E7472616374000000 PUSH1 0x44 DUP3 ADD MSTORE PUSH1 0x64 ADD PUSH2 0x29F JUMP JUMPDEST PUSH1 0x0 DUP1 DUP7 PUSH1 0x1 PUSH1 0x1 PUSH1 0xA0 SHL SUB AND DUP6 DUP8 PUSH1 0x40 MLOAD PUSH2 0x9D4 SWAP2 SWAP1 PUSH2 0xC35 JUMP JUMPDEST PUSH1 0x0 PUSH1 0x40 MLOAD DUP1 DUP4 SUB DUP2 DUP6 DUP8 GAS CALL SWAP3 POP POP POP RETURNDATASIZE DUP1 PUSH1 0x0 DUP2 EQ PUSH2 0xA11 JUMPI PUSH1 0x40 MLOAD SWAP2 POP PUSH1 0x1F NOT PUSH1 0x3F RETURNDATASIZE ADD AND DUP3 ADD PUSH1 0x40 MSTORE RETURNDATASIZE DUP3 MSTORE RETURNDATASIZE PUSH1 0x0 PUSH1 0x20 DUP5 ADD RETURNDATACOPY PUSH2 0xA16 JUMP JUMPDEST PUSH1 0x60 SWAP2 POP JUMPDEST POP SWAP2 POP SWAP2 POP PUSH2 0xA26 DUP3 DUP3 DUP7 PUSH2 0xA31 JUMP JUMPDEST SWAP8 SWAP7 POP POP POP POP POP POP POP JUMP JUMPDEST PUSH1 0x60 DUP4 ISZERO PUSH2 0xA40 JUMPI POP DUP2 PUSH2 0x58E JUMP JUMPDEST DUP3 MLOAD ISZERO PUSH2 0xA50 JUMPI DUP3 MLOAD DUP1 DUP5 PUSH1 0x20 ADD REVERT JUMPDEST DUP2 PUSH1 0x40 MLOAD PUSH3 0x461BCD PUSH1 0xE5 SHL DUP2 MSTORE PUSH1 0x4 ADD PUSH2 0x29F SWAP2 SWAP1 PUSH2 0xC51 JUMP JUMPDEST PUSH1 0x0 PUSH1 0x20 DUP3 DUP5 SUB SLT ISZERO PUSH2 0xA7C JUMPI PUSH1 0x0 DUP1 REVERT JUMPDEST POP CALLDATALOAD SWAP2 SWAP1 POP JUMP JUMPDEST PUSH1 0x0 DUP1 PUSH1 0x20 DUP4 DUP6 SUB SLT ISZERO PUSH2 0xA96 JUMPI PUSH1 0x0 DUP1 REVERT JUMPDEST DUP3 CALLDATALOAD PUSH8 0xFFFFFFFFFFFFFFFF DUP1 DUP3 GT ISZERO PUSH2 0xAAE JUMPI PUSH1 0x0 DUP1 REVERT JUMPDEST DUP2 DUP6 ADD SWAP2 POP DUP6 PUSH1 0x1F DUP4 ADD SLT PUSH2 0xAC2 JUMPI PUSH1 0x0 DUP1 REVERT JUMPDEST DUP2 CALLDATALOAD DUP2 DUP2 GT ISZERO PUSH2 0xAD1 JUMPI PUSH1 0x0 DUP1 REVERT JUMPDEST DUP7 PUSH1 0x20 DUP3 PUSH1 0x5 SHL DUP6 ADD ADD GT ISZERO PUSH2 0xAE6 JUMPI PUSH1 0x0 DUP1 REVERT JUMPDEST PUSH1 0x20 SWAP3 SWAP1 SWAP3 ADD SWAP7 SWAP2 SWAP6 POP SWAP1 SWAP4 POP POP POP POP JUMP JUMPDEST PUSH1 0x1 PUSH1 0x1 PUSH1 0xA0 SHL SUB DUP2 AND DUP2 EQ PUSH2 0xB0D JUMPI PUSH1 0x0 DUP1 REVERT JUMPDEST POP JUMP JUMPDEST PUSH1 0x0 PUSH1 0x20 DUP3 DUP5 SUB SLT ISZERO PUSH2 0xB22 JUMPI PUSH1 0x0 DUP1 REVERT JUMPDEST DUP2 CALLDATALOAD PUSH2 0x58E DUP2 PUSH2 0xAF8 JUMP JUMPDEST PUSH1 0x0 PUSH1 0x20 DUP3 DUP5 SUB SLT ISZERO PUSH2 0xB3F JUMPI PUSH1 0x0 DUP1 REVERT JUMPDEST DUP2 MLOAD PUSH2 0x58E DUP2 PUSH2 0xAF8 JUMP JUMPDEST PUSH4 0x4E487B71 PUSH1 0xE0 SHL PUSH1 0x0 MSTORE PUSH1 0x32 PUSH1 0x4 MSTORE PUSH1 0x24 PUSH1 0x0 REVERT JUMPDEST PUSH4 0x4E487B71 PUSH1 0xE0 SHL PUSH1 0x0 MSTORE PUSH1 0x11 PUSH1 0x4 MSTORE PUSH1 0x24 PUSH1 0x0 REVERT JUMPDEST PUSH1 0x0 PUSH1 0x1 DUP3 ADD PUSH2 0xB88 JUMPI PUSH2 0xB88 PUSH2 0xB60 JUMP JUMPDEST POP PUSH1 0x1 ADD SWAP1 JUMP JUMPDEST PUSH1 0x0 DUP3 PUSH2 0xBAC JUMPI PUSH4 0x4E487B71 PUSH1 0xE0 SHL PUSH1 0x0 MSTORE PUSH1 0x12 PUSH1 0x4 MSTORE PUSH1 0x24 PUSH1 0x0 REVERT JUMPDEST POP DIV SWAP1 JUMP JUMPDEST PUSH1 0x0 DUP3 DUP3 LT ISZERO PUSH2 0xBC3 JUMPI PUSH2 0xBC3 PUSH2 0xB60 JUMP JUMPDEST POP SUB SWAP1 JUMP JUMPDEST PUSH1 0x0 DUP2 PUSH1 0x0 NOT DIV DUP4 GT DUP3 ISZERO ISZERO AND ISZERO PUSH2 0xBE2 JUMPI PUSH2 0xBE2 PUSH2 0xB60 JUMP JUMPDEST POP MUL SWAP1 JUMP JUMPDEST PUSH1 0x0 PUSH1 0x20 DUP3 DUP5 SUB SLT ISZERO PUSH2 0xBF9 JUMPI PUSH1 0x0 DUP1 REVERT JUMPDEST DUP2 MLOAD DUP1 ISZERO ISZERO DUP2 EQ PUSH2 0x58E JUMPI PUSH1 0x0 DUP1 REVERT JUMPDEST PUSH1 0x0 JUMPDEST DUP4 DUP2 LT ISZERO PUSH2 0xC24 JUMPI DUP2 DUP2 ADD MLOAD DUP4 DUP3 ADD MSTORE PUSH1 0x20 ADD PUSH2 0xC0C JUMP JUMPDEST DUP4 DUP2 GT ISZERO PUSH2 0x568 JUMPI POP POP PUSH1 0x0 SWAP2 ADD MSTORE JUMP JUMPDEST PUSH1 0x0 DUP3 MLOAD PUSH2 0xC47 DUP2 DUP5 PUSH1 0x20 DUP8 ADD PUSH2 0xC09 JUMP JUMPDEST SWAP2 SWAP1 SWAP2 ADD SWAP3 SWAP2 POP POP JUMP JUMPDEST PUSH1 0x20 DUP2 MSTORE PUSH1 0x0 DUP3 MLOAD DUP1 PUSH1 0x20 DUP5 ADD MSTORE PUSH2 0xC70 DUP2 PUSH1 0x40 DUP6 ADD PUSH1 0x20 DUP8 ADD PUSH2 0xC09 JUMP JUMPDEST PUSH1 0x1F ADD PUSH1 0x1F NOT AND SWAP2 SWAP1 SWAP2 ADD PUSH1 0x40 ADD SWAP3 SWAP2 POP POP JUMP INVALID LOG2 PUSH5 0x6970667358 0x22 SLT KECCAK256 NOT 0xE7 DUP2 SWAP9 0xD4 0xA8 PUSH2 0x22D4 TIMESTAMP PUSH27 0xAF56F017B2153AA66569699D5FAACABA20EAC16C564736F6C6343 STOP ADDMOD 0xD STOP CALLER "
    },
    "gasEstimates": {
      "creation": {
        "codeDepositCost": "651600",
        "executionCost": "infinite",
        "totalCost": "infinite"
      },
      "external": {
        "Deadline()": "2306",
        "InitTime()": "2329",
        "availableRewards(uint256)": "infinite",
        "batchClaimRewards(uint256[])": "infinite",
        "claimRewards(uint256)": "infinite",
        "nftCollection()": "infinite",
        "rewardsToken()": "infinite",
        "setDeadline(uint256)": "24510",
        "setInitTime(uint256)": "24509",
        "setNewOwner(address)": "26756"
      },
      "internal": {
        "calculateRewards(uint256)": "23909"
      }
    },
    "methodIdentifiers": {
      "Deadline()": "c6f221aa",
      "InitTime()": "38c4c7ce",
      "availableRewards(uint256)": "61c02efb",
      "batchClaimRewards(uint256[])": "29183872",
      "claimRewards(uint256)": "0962ef79",
      "nftCollection()": "6588103b",
      "rewardsToken()": "d1af0c7d",
      "setDeadline(uint256)": "195199f6",
      "setInitTime(uint256)": "a5e2f9d9",
      "setNewOwner(address)": "f5a1f5b4"
    }
  },
  "storageLayout": {
    "storage": [
      {
        "astId": 366,
        "contract": "ToyMoriesHold2Earn.sol:ToyMoriesHold2Earn",
        "label": "_status",
        "offset": 0,
        "slot": "0",
        "type": "t_uint256"
      },
      {
        "astId": 45,
        "contract": "ToyMoriesHold2Earn.sol:ToyMoriesHold2Earn",
        "label": "owner",
        "offset": 0,
        "slot": "1",
        "type": "t_address"
      },
      {
        "astId": 47,
        "contract": "ToyMoriesHold2Earn.sol:ToyMoriesHold2Earn",
        "label": "InitTime",
        "offset": 0,
        "slot": "2",
        "type": "t_uint256"
      },
      {
        "astId": 49,
        "contract": "ToyMoriesHold2Earn.sol:ToyMoriesHold2Earn",
        "label": "Deadline",
        "offset": 0,
        "slot": "3",
        "type": "t_uint256"
      },
      {
        "astId": 52,
        "contract": "ToyMoriesHold2Earn.sol:ToyMoriesHold2Earn",
        "label": "rewardsPerDay",
        "offset": 0,
        "slot": "4",
        "type": "t_uint256"
      },
      {
        "astId": 57,
        "contract": "ToyMoriesHold2Earn.sol:ToyMoriesHold2Earn",
        "label": "tokens",
        "offset": 0,
        "slot": "5",
        "type": "t_mapping(t_uint256,t_struct(TokenNFT)43_storage)"
      }
    ],
    "types": {
      "t_address": {
        "encoding": "inplace",
        "label": "address",
        "numberOfBytes": "20"
      },
      "t_mapping(t_uint256,t_struct(TokenNFT)43_storage)": {
        "encoding": "mapping",
        "key": "t_uint256",
        "label": "mapping(uint256 => struct ToyMoriesHold2Earn.TokenNFT)",
        "numberOfBytes": "32",
        "value": "t_struct(TokenNFT)43_storage"
      },
      "t_struct(TokenNFT)43_storage": {
        "encoding": "inplace",
        "label": "struct ToyMoriesHold2Earn.TokenNFT",
        "members": [
          {
            "astId": 42,
            "contract": "ToyMoriesHold2Earn.sol:ToyMoriesHold2Earn",
            "label": "timeOfLastUpdate",
            "offset": 0,
            "slot": "0",
            "type": "t_uint256"
          }
        ],
        "numberOfBytes": "32"
      },
      "t_uint256": {
        "encoding": "inplace",
        "label": "uint256",
        "numberOfBytes": "32"
      }
    }
  },
  "userdoc": {
    "kind": "user",
    "methods": {},
    "version": 1
  }
}